{
  "address": "0x7d08af9a703f897c6cae78b21ae1c634750ccc59",
  "abi": [
    {
      "inputs": [],
      "name": "PubKey",
      "outputs": [
        {
          "internalType": "bytes",
          "name": "",
          "type": "bytes"
        }
      ],
      "stateMutability": "view",
      "type": "function"
    },
    {
      "inputs": [],
      "name": "PubKeyNegate",
      "outputs": [
        {
          "internalType": "bytes",
          "name": "",
          "type": "bytes"
        }
      ],
      "stateMutability": "view",
      "type": "function"
    },
    {
      "inputs": [
        {
          "internalType": "string",
          "name": "headerJson",
          "type": "string"
        },
        {
          "internalType": "string",
          "name": "payloadJson",
          "type": "string"
        },
        {
          "internalType": "bytes",
          "name": "signature",
          "type": "bytes"
        }
      ],
      "name": "verify",
      "outputs": [
        {
          "internalType": "bool",
          "name": "",
          "type": "bool"
        }
      ],
      "stateMutability": "view",
      "type": "function"
    },
    {
      "inputs": [
        {
          "internalType": "bytes",
          "name": "_msg",
          "type": "bytes"
        },
        {
          "internalType": "bytes",
          "name": "_sig",
          "type": "bytes"
        }
      ],
      "name": "verify",
      "outputs": [
        {
          "internalType": "bool",
          "name": "",
          "type": "bool"
        }
      ],
      "stateMutability": "view",
      "type": "function"
    }
  ],
  "transactionHash": "0xba336baee127feab4404543b416c81819045d97574ae97fea962500714c8b77f",
  "args": [],
  "solcInputHash": "44175d0413ce096832e9c67fb77a22f5",
  "bytecode": "0x608060405234801561001057600080fd5b50612ced806100206000396000f3fe608060405234801561001057600080fd5b506004361061004c5760003560e01c806308a981fe14610051578063d5bf8e5f14610081578063f0a443961461009f578063f7e83aee146100bd575b600080fd5b61006b60048036038101906100669190611d97565b6100ed565b6040516100789190612247565b60405180910390f35b61008961028e565b6040516100969190612262565b60405180910390f35b6100a76102aa565b6040516100b49190612262565b60405180910390f35b6100d760048036038101906100d29190611d2b565b6102c6565b6040516100e49190612247565b60405180910390f35b6000806100f985610470565b9050600061010685610470565b90506000600267ffffffffffffffff81111561014b577f4e487b7100000000000000000000000000000000000000000000000000000000600052604160045260246000fd5b60405190808252806020026020018201604052801561018457816020015b610171611be0565b8152602001906001900390816101695790505b50905061019083610a95565b816000815181106101ca577f4e487b7100000000000000000000000000000000000000000000000000000000600052603260045260246000fd5b60200260200101819052506101de82610a95565b81600181518110610218577f4e487b7100000000000000000000000000000000000000000000000000000000600052603260045260246000fd5b60200260200101819052506000610275826102676040518060400160405280600181526020017f2e00000000000000000000000000000000000000000000000000000000000000815250610a95565b610ac390919063ffffffff16565b905061028181876102c6565b9450505050509392505050565b6040518060a0016040528060808152602001612c386080913981565b6040518060a0016040528060808152602001612acc6080913981565b60008060006102d485610d45565b9050606060ec73ffffffffffffffffffffffffffffffffffffffff166040518060a0016040528060808152602001612acc60809139836040518060a0016040528060808152602001612a4c6080913988604051602001610337949392919061217d565b6040516020818303038152906040526040516103539190612142565b600060405180830381855afa9150503d806000811461038e576040519150601f19603f3d011682016040523d82523d6000602084013e610393565b606091505b508092508194505050826103dc576040517f08c379a00000000000000000000000000000000000000000000000000000000081526004016103d3906122c4565b60405180910390fd5b7f010000000000000000000000000000000000000000000000000000000000000081601f81518110610437577f4e487b7100000000000000000000000000000000000000000000000000000000600052603260045260246000fd5b602001015160f81c60f81b7effffffffffffffffffffffffffffffffffffffffffffffffffffffffffffff191614935050505092915050565b60606000829050600060038251610487919061280e565b90506000600382600361049a9190612677565b6104a4919061280e565b60046003600286516104b691906123ee565b6104c0919061247b565b6104ca919061261d565b6104d49190612677565b905060008167ffffffffffffffff811115610518577f4e487b7100000000000000000000000000000000000000000000000000000000600052604160045260246000fd5b6040519080825280601f01601f19166020018201604052801561054a5781602001600182028036833780820191505090505b5090506000805b855160038361056091906123ee565b11610842576106638683815181106105a1577f4e487b7100000000000000000000000000000000000000000000000000000000600052603260045260246000fd5b602001015160f81c60f81b60f81c60ff16876001856105c091906123ee565b815181106105f7577f4e487b7100000000000000000000000000000000000000000000000000000000600052603260045260246000fd5b602001015160f81c60f81b60f81c60ff168860028661061691906123ee565b8151811061064d577f4e487b7100000000000000000000000000000000000000000000000000000000600052603260045260246000fd5b602001015160f81c60f81b60f81c60ff16610fdc565b86858151811061069c577f4e487b7100000000000000000000000000000000000000000000000000000000600052603260045260246000fd5b60200101876001876106ae91906123ee565b815181106106e5577f4e487b7100000000000000000000000000000000000000000000000000000000600052603260045260246000fd5b60200101886002886106f791906123ee565b8151811061072e577f4e487b7100000000000000000000000000000000000000000000000000000000600052603260045260246000fd5b602001018960038961074091906123ee565b81518110610777577f4e487b7100000000000000000000000000000000000000000000000000000000600052603260045260246000fd5b60200101847effffffffffffffffffffffffffffffffffffffffffffffffffffffffffffff191660001a9053847effffffffffffffffffffffffffffffffffffffffffffffffffffffffffffff191660001a9053847effffffffffffffffffffffffffffffffffffffffffffffffffffffffffffff191660001a9053847effffffffffffffffffffffffffffffffffffffffffffffffffffffffffffff191660001a90535050505060048161082c91906123ee565b905060038261083b91906123ee565b9150610551565b60008514610a875760008686885161085a9190612677565b81518110610891577f4e487b7100000000000000000000000000000000000000000000000000000000600052603260045260246000fd5b602001015160f81c60f81b60f81c9050600060028714156109035787600189516108bb9190612677565b815181106108f2577f4e487b7100000000000000000000000000000000000000000000000000000000600052603260045260246000fd5b602001015160f81c60f81b60f81c90505b60008060008061091b8660ff168660ff166000610fdc565b93509350935093508389888151811061095d577f4e487b7100000000000000000000000000000000000000000000000000000000600052603260045260246000fd5b60200101907effffffffffffffffffffffffffffffffffffffffffffffffffffffffffffff1916908160001a905350828960018961099b91906123ee565b815181106109d2577f4e487b7100000000000000000000000000000000000000000000000000000000600052603260045260246000fd5b60200101907effffffffffffffffffffffffffffffffffffffffffffffffffffffffffffff1916908160001a90535060028b1415610a80578189600289610a1991906123ee565b81518110610a50577f4e487b7100000000000000000000000000000000000000000000000000000000600052603260045260246000fd5b60200101907effffffffffffffffffffffffffffffffffffffffffffffffffffffffffffff1916908160001a9053505b5050505050505b829650505050505050919050565b610a9d611be0565b600060208301905060405180604001604052808451815260200182815250915050919050565b6060600082511415610ae657604051806020016040528060008152509050610d3f565b600060018351610af69190612677565b8460000151610b05919061261d565b905060005b8351811015610b7857838181518110610b4c577f4e487b7100000000000000000000000000000000000000000000000000000000600052603260045260246000fd5b60200260200101516000015182610b6391906123ee565b91508080610b709061277f565b915050610b0a565b5060008167ffffffffffffffff811115610bbb577f4e487b7100000000000000000000000000000000000000000000000000000000600052604160045260246000fd5b6040519080825280601f01601f191660200182016040528015610bed5781602001600182028036833780820191505090505b509050600060208201905060005b8551811015610d3757610c9782878381518110610c41577f4e487b7100000000000000000000000000000000000000000000000000000000600052603260045260246000fd5b602002602001015160200151888481518110610c86577f4e487b7100000000000000000000000000000000000000000000000000000000600052603260045260246000fd5b6020026020010151600001516111a5565b858181518110610cd0577f4e487b7100000000000000000000000000000000000000000000000000000000600052603260045260246000fd5b60200260200101516000015182610ce791906123ee565b915060018651610cf79190612677565b811015610d2457610d1182886020015189600001516111a5565b866000015182610d2191906123ee565b91505b8080610d2f9061277f565b915050610bfb565b508193505050505b92915050565b6060806060610d5384611224565b8092508193505050600060608060ea73ffffffffffffffffffffffffffffffffffffffff1685604051602001610d899190612142565b604051602081830303815290604052604051610da59190612142565b600060405180830381855afa9150503d8060008114610de0576040519150601f19603f3d011682016040523d82523d6000602084013e610de5565b606091505b50809350819450505082610e2e576040517f08c379a0000000000000000000000000000000000000000000000000000000008152600401610e25906122e4565b60405180910390fd5b60ea73ffffffffffffffffffffffffffffffffffffffff1684604051602001610e579190612142565b604051602081830303815290604052604051610e739190612142565b600060405180830381855afa9150503d8060008114610eae576040519150601f19603f3d011682016040523d82523d6000602084013e610eb3565b606091505b50809250819450505082610efc576040517f08c379a0000000000000000000000000000000000000000000000000000000008152600401610ef390612284565b60405180910390fd5b606060ef73ffffffffffffffffffffffffffffffffffffffff168383604051602001610f29929190612159565b604051602081830303815290604052604051610f459190612142565b600060405180830381855afa9150503d8060008114610f80576040519150601f19603f3d011682016040523d82523d6000602084013e610f85565b606091505b50809250819550505083610fce576040517f08c379a0000000000000000000000000000000000000000000000000000000008152600401610fc590612304565b60405180910390fd5b809650505050505050919050565b600080600080600085600888901b60108a901b171790506000603f601283901c1690506000603f600c84901c1690506000603f600685901c1690506000603f85169050604051806060016040528060408152602001612b4c604091398481518110611070577f4e487b7100000000000000000000000000000000000000000000000000000000600052603260045260246000fd5b602001015160f81c60f81b9850604051806060016040528060408152602001612b4c6040913983815181106110ce577f4e487b7100000000000000000000000000000000000000000000000000000000600052603260045260246000fd5b602001015160f81c60f81b9750604051806060016040528060408152602001612b4c60409139828151811061112c577f4e487b7100000000000000000000000000000000000000000000000000000000600052603260045260246000fd5b602001015160f81c60f81b9650604051806060016040528060408152602001612b4c60409139818151811061118a577f4e487b7100000000000000000000000000000000000000000000000000000000600052603260045260246000fd5b602001015160f81c60f81b9550505050505093509350935093565b5b602081106111e457815183526020836111bf91906123ee565b92506020826111ce91906123ee565b91506020816111dd9190612677565b90506111a6565b600060018260206111f59190612677565b61010061120291906124ff565b61120c9190612677565b90508019835116818551168181178652505050505050565b606080600061123284611547565b90506000604067ffffffffffffffff811115611277577f4e487b7100000000000000000000000000000000000000000000000000000000600052604160045260246000fd5b6040519080825280601f01601f1916602001820160405280156112a95781602001600182028036833780820191505090505b5090506000604067ffffffffffffffff8111156112ef577f4e487b7100000000000000000000000000000000000000000000000000000000600052604160045260246000fd5b6040519080825280601f01601f1916602001820160405280156113215781602001600182028036833780820191505090505b5090506000604067ffffffffffffffff811115611367577f4e487b7100000000000000000000000000000000000000000000000000000000600052604160045260246000fd5b6040519080825280601f01601f1916602001820160405280156113995781602001600182028036833780820191505090505b5090506000604067ffffffffffffffff8111156113df577f4e487b7100000000000000000000000000000000000000000000000000000000600052604160045260246000fd5b6040519080825280601f01601f1916602001820160405280156114115781602001600182028036833780820191505090505b5090506020850151602085015260408501516040850152606085015160208401526080850151604084015260a0850151602083015260c0850151604083015260e08501516020820152610100850151604082015261148784604051806060016040528060408152602001612b8c60409139611a8f565b93506114ab83604051806060016040528060408152602001612b8c60409139611a8f565b92506114cf82604051806060016040528060408152602001612b8c60409139611a8f565b91506114f381604051806060016040528060408152602001612b8c60409139611a8f565b90508383604051602001611508929190612159565b604051602081830303815290604052828260405160200161152a929190612159565b604051602081830303815290604052965096505050505050915091565b6060611551611bfa565b60006002604051806060016040528060408152602001612bf860409139856040518060600160405280602c8152602001612bcc602c913960405160200161159a939291906121bb565b6040516020818303038152906040526040516115b69190612142565b602060405180830381855afa1580156115d3573d6000803e3d6000fd5b5050506040513d601f19601f820116820180604052508101906115f69190611d02565b90506002816040518060600160405280602c8152602001612bcc602c91396040516020016116259291906120d6565b6040516020818303038152906040526040516116419190612142565b602060405180830381855afa15801561165e573d6000803e3d6000fd5b5050506040513d601f19601f820116820180604052508101906116819190611d02565b826000600981106116bb577f4e487b7100000000000000000000000000000000000000000000000000000000600052603260045260246000fd5b6020020181815250506000600190505b60088160ff161161181c576000836001836116e691906126ab565b60ff1660098110611720577f4e487b7100000000000000000000000000000000000000000000000000000000600052603260045260246000fd5b60200201519050808318905060028160018461173c9190612444565b6040518060600160405280602c8152602001612bcc602c913960405160200161176793929190612109565b6040516020818303038152906040526040516117839190612142565b602060405180830381855afa1580156117a0573d6000803e3d6000fd5b5050506040513d601f19601f820116820180604052508101906117c39190611d02565b848360ff16600981106117ff577f4e487b7100000000000000000000000000000000000000000000000000000000600052603260045260246000fd5b602002018181525050508080611814906127c8565b9150506116cb565b50600082600060098110611859577f4e487b7100000000000000000000000000000000000000000000000000000000600052603260045260246000fd5b602002015183600160098110611898577f4e487b7100000000000000000000000000000000000000000000000000000000600052603260045260246000fd5b6020020151846002600981106118d7577f4e487b7100000000000000000000000000000000000000000000000000000000600052603260045260246000fd5b602002015185600360098110611916577f4e487b7100000000000000000000000000000000000000000000000000000000600052603260045260246000fd5b602002015186600460098110611955577f4e487b7100000000000000000000000000000000000000000000000000000000600052603260045260246000fd5b602002015187600560098110611994577f4e487b7100000000000000000000000000000000000000000000000000000000600052603260045260246000fd5b6020020151886006600981106119d3577f4e487b7100000000000000000000000000000000000000000000000000000000600052603260045260246000fd5b602002015189600760098110611a12577f4e487b7100000000000000000000000000000000000000000000000000000000600052603260045260246000fd5b60200201518a600860098110611a51577f4e487b7100000000000000000000000000000000000000000000000000000000600052603260045260246000fd5b6020020151604051602001611a6e99989796959493929190612033565b60405160208183030381529060405290506101008152809350505050919050565b6060604067ffffffffffffffff811115611ad2577f4e487b7100000000000000000000000000000000000000000000000000000000600052604160045260246000fd5b6040519080825280601f01601f191660200182016040528015611b045781602001600182028036833780820191505090505b5090506000600573ffffffffffffffffffffffffffffffffffffffff168484604051602001611b349291906121f7565b604051602081830303815290604052604051611b509190612142565b600060405180830381855afa9150503d8060008114611b8b576040519150601f19603f3d011682016040523d82523d6000602084013e611b90565b606091505b50809350819250505080611bd9576040517f08c379a0000000000000000000000000000000000000000000000000000000008152600401611bd0906122a4565b60405180910390fd5b5092915050565b604051806040016040528060008152602001600081525090565b604051806101200160405280600990602082028036833780820191505090505090565b6000611c30611c2b84612349565b612324565b905082815260208101848484011115611c4857600080fd5b611c5384828561270c565b509392505050565b6000611c6e611c698461237a565b612324565b905082815260208101848484011115611c8657600080fd5b611c9184828561270c565b509392505050565b600081519050611ca881612a34565b92915050565b600082601f830112611cbf57600080fd5b8135611ccf848260208601611c1d565b91505092915050565b600082601f830112611ce957600080fd5b8135611cf9848260208601611c5b565b91505092915050565b600060208284031215611d1457600080fd5b6000611d2284828501611c99565b91505092915050565b60008060408385031215611d3e57600080fd5b600083013567ffffffffffffffff811115611d5857600080fd5b611d6485828601611cae565b925050602083013567ffffffffffffffff811115611d8157600080fd5b611d8d85828601611cae565b9150509250929050565b600080600060608486031215611dac57600080fd5b600084013567ffffffffffffffff811115611dc657600080fd5b611dd286828701611cd8565b935050602084013567ffffffffffffffff811115611def57600080fd5b611dfb86828701611cd8565b925050604084013567ffffffffffffffff811115611e1857600080fd5b611e2486828701611cae565b9150509250925092565b611e37816126df565b82525050565b611e4e611e49826126eb565b6127f2565b82525050565b6000611e5f826123ab565b611e6981856123b6565b9350611e7981856020860161271b565b611e82816128cc565b840191505092915050565b6000611e98826123ab565b611ea281856123c7565b9350611eb281856020860161271b565b80840191505092915050565b6000611ecb6013836123d2565b9150611ed6826128f7565b602082019050919050565b6000611eee6020836123e3565b9150611ef982612920565b602082019050919050565b6000611f116010836123d2565b9150611f1c8261292a565b602082019050919050565b6000611f346001836123e3565b9150611f3f82612953565b600182019050919050565b6000611f57600e836123d2565b9150611f628261297c565b602082019050919050565b6000611f7a6013836123d2565b9150611f85826129a5565b602082019050919050565b6000611f9d6020836123e3565b9150611fa8826129ce565b602082019050919050565b6000611fc06020836123e3565b9150611fcb826129d8565b602082019050919050565b6000611fe36012836123d2565b9150611fee826129e2565b602082019050919050565b60006120066003836123e3565b915061201182612a0b565b600382019050919050565b61202d612028826126ff565b6127fc565b82525050565b600061203f828c611e3d565b60208201915061204f828b611e3d565b60208201915061205f828a611e3d565b60208201915061206f8289611e3d565b60208201915061207f8288611e3d565b60208201915061208f8287611e3d565b60208201915061209f8286611e3d565b6020820191506120af8285611e3d565b6020820191506120bf8284611e3d565b6020820191508190509a9950505050505050505050565b60006120e28285611e3d565b6020820191506120f182611f27565b91506120fd8284611e8d565b91508190509392505050565b60006121158286611e3d565b602082019150612125828561201c565b6001820191506121358284611e8d565b9150819050949350505050565b600061214e8284611e8d565b915081905092915050565b60006121658285611e8d565b91506121718284611e8d565b91508190509392505050565b60006121898287611e8d565b91506121958286611e8d565b91506121a18285611e8d565b91506121ad8284611e8d565b915081905095945050505050565b60006121c78286611e8d565b91506121d38285611e8d565b91506121de82611ff9565b91506121ea8284611e8d565b9150819050949350505050565b600061220282611ee1565b915061220d82611fb3565b915061221882611ee1565b91506122248285611e8d565b915061222f82611f90565b915061223b8284611e8d565b91508190509392505050565b600060208201905061225c6000830184611e2e565b92915050565b6000602082019050818103600083015261227c8184611e54565b905092915050565b6000602082019050818103600083015261229d81611ebe565b9050919050565b600060208201905081810360008301526122bd81611f04565b9050919050565b600060208201905081810360008301526122dd81611f4a565b9050919050565b600060208201905081810360008301526122fd81611f6d565b9050919050565b6000602082019050818103600083015261231d81611fd6565b9050919050565b600061232e61233f565b905061233a828261274e565b919050565b6000604051905090565b600067ffffffffffffffff8211156123645761236361289d565b5b61236d826128cc565b9050602081019050919050565b600067ffffffffffffffff8211156123955761239461289d565b5b61239e826128cc565b9050602081019050919050565b600081519050919050565b600082825260208201905092915050565b600081905092915050565b600082825260208201905092915050565b600081905092915050565b60006123f9826126f5565b9150612404836126f5565b9250827fffffffffffffffffffffffffffffffffffffffffffffffffffffffffffffffff038211156124395761243861283f565b5b828201905092915050565b600061244f826126ff565b915061245a836126ff565b92508260ff038211156124705761246f61283f565b5b828201905092915050565b6000612486826126f5565b9150612491836126f5565b9250826124a1576124a061286e565b5b828204905092915050565b6000808291508390505b60018511156124f6578086048111156124d2576124d161283f565b5b60018516156124e15780820291505b80810290506124ef856128ea565b94506124b6565b94509492505050565b600061250a826126f5565b9150612515836126f5565b92506125427fffffffffffffffffffffffffffffffffffffffffffffffffffffffffffffffff848461254a565b905092915050565b60008261255a5760019050612616565b816125685760009050612616565b816001811461257e5760028114612588576125b7565b6001915050612616565b60ff84111561259a5761259961283f565b5b8360020a9150848211156125b1576125b061283f565b5b50612616565b5060208310610133831016604e8410600b84101617156125ec5782820a9050838111156125e7576125e661283f565b5b612616565b6125f984848460016124ac565b925090508184048111156126105761260f61283f565b5b81810290505b9392505050565b6000612628826126f5565b9150612633836126f5565b9250817fffffffffffffffffffffffffffffffffffffffffffffffffffffffffffffffff048311821515161561266c5761266b61283f565b5b828202905092915050565b6000612682826126f5565b915061268d836126f5565b9250828210156126a05761269f61283f565b5b828203905092915050565b60006126b6826126ff565b91506126c1836126ff565b9250828210156126d4576126d361283f565b5b828203905092915050565b60008115159050919050565b6000819050919050565b6000819050919050565b600060ff82169050919050565b82818337600083830152505050565b60005b8381101561273957808201518184015260208101905061271e565b83811115612748576000848401525b50505050565b612757826128cc565b810181811067ffffffffffffffff821117156127765761277561289d565b5b80604052505050565b600061278a826126f5565b91507fffffffffffffffffffffffffffffffffffffffffffffffffffffffffffffffff8214156127bd576127bc61283f565b5b600182019050919050565b60006127d3826126ff565b915060ff8214156127e7576127e661283f565b5b600182019050919050565b6000819050919050565b6000612807826128dd565b9050919050565b6000612819826126f5565b9150612824836126f5565b9250826128345761283361286e565b5b828206905092915050565b7f4e487b7100000000000000000000000000000000000000000000000000000000600052601160045260246000fd5b7f4e487b7100000000000000000000000000000000000000000000000000000000600052601260045260246000fd5b7f4e487b7100000000000000000000000000000000000000000000000000000000600052604160045260246000fd5b6000601f19601f8301169050919050565b60008160f81b9050919050565b60008160011c9050919050565b7f4d617020753120746f204732206661696c656400000000000000000000000000600082015250565b6040600082015250565b7f4269674d6f64457870206661696c656400000000000000000000000000000000600082015250565b7f0100000000000000000000000000000000000000000000000000000000000000600082015250565b7f50616972696e67206661696c6564000000000000000000000000000000000000600082015250565b7f4d617020753020746f204732206661696c656400000000000000000000000000600082015250565b6001600082015250565b6020600082015250565b7f4164642075702068617368206661696c65640000000000000000000000000000600082015250565b7f0100000000000000000000000000000000000000000000000000000000000000600082015250565b612a3d816126eb565b8114612a4857600080fd5b5056fe0000000000000000000000000000000017f1d3a73197d7942695638c4fa9ac0fc3688c4f9774b905a14e3a3f171bac586c55e83ff97a1aeffb3af00adb22c6bb0000000000000000000000000000000008b3f481e3aaa0f1a09e30ed741d8ae4fcf5e095d5d00af600db18cb2c04b3edd03cc744a2888ae40caa232946c5e7e1000000000000000000000000000000001971e835a1fe1a4d78e381eebbe0ddc84fde5119169db816900de796d10187f3c53d65c1202ac083d099a517f34a9b6200000000000000000000000000000000163b82c73664184d017ac0417de366616cf9c9e4dcf511f95ad4785a0d4824293232c103bf59953af51dfc82e84b7a344142434445464748494a4b4c4d4e4f505152535455565758595a6162636465666768696a6b6c6d6e6f707172737475767778797a303132333435363738392d5f000000000000000000000000000000001a0111ea397fe69a4b1ba7b6434bacd764774b84f38512bf6730d2a0f6b0f6241eabfffeb153ffffb9feffffffffaaab424c535f5349475f424c53313233383147325f584d443a5348412d3235365f535357555f524f5f4e554c5f2b00000000000000000000000000000000000000000000000000000000000000000000000000000000000000000000000000000000000000000000000000000000000000000000000000000000000000001971e835a1fe1a4d78e381eebbe0ddc84fde5119169db816900de796d10187f3c53d65c1202ac083d099a517f34a9b620000000000000000000000000000000003c58f23031bce4d49a0e774c5684675f77d81a0169000c60c5c5a46e968d1faec793efaf1fa6ac4c4e1037d17b43077a2646970667358221220b49abe6210b5b9b0031b9eb7f17a9ff1c334ee6922f9e994a9f1416bdc9a819b64736f6c63430008040033",
  "devdoc": {
    "kind": "dev",
    "methods": {},
    "version": 1
  },
  "userdoc": {
    "kind": "user",
    "methods": {},
    "version": 1
  },
  "storageLayout": {
    "storage": [],
    "types": null
  }
}