{
  "address": "0x88DCA5daE53DC13EBB8bd4E65Dc0c8a2D384bc88",
  "abi": [
    {
      "inputs": [],
      "name": "DST_Prime",
      "outputs": [
        {
          "internalType": "bytes",
          "name": "",
          "type": "bytes"
        }
      ],
      "stateMutability": "view",
      "type": "function"
    },
    {
      "inputs": [],
      "name": "G1ADD",
      "outputs": [
        {
          "internalType": "address",
          "name": "",
          "type": "address"
        }
      ],
      "stateMutability": "view",
      "type": "function"
    },
    {
      "inputs": [],
      "name": "G1Base",
      "outputs": [
        {
          "internalType": "bytes",
          "name": "",
          "type": "bytes"
        }
      ],
      "stateMutability": "view",
      "type": "function"
    },
    {
      "inputs": [],
      "name": "G1MUL",
      "outputs": [
        {
          "internalType": "address",
          "name": "",
          "type": "address"
        }
      ],
      "stateMutability": "view",
      "type": "function"
    },
    {
      "inputs": [],
      "name": "G1MULTIEXP",
      "outputs": [
        {
          "internalType": "address",
          "name": "",
          "type": "address"
        }
      ],
      "stateMutability": "view",
      "type": "function"
    },
    {
      "inputs": [],
      "name": "G2ADD",
      "outputs": [
        {
          "internalType": "address",
          "name": "",
          "type": "address"
        }
      ],
      "stateMutability": "view",
      "type": "function"
    },
    {
      "inputs": [],
      "name": "G2MUL",
      "outputs": [
        {
          "internalType": "address",
          "name": "",
          "type": "address"
        }
      ],
      "stateMutability": "view",
      "type": "function"
    },
    {
      "inputs": [],
      "name": "G2MULTIEXP",
      "outputs": [
        {
          "internalType": "address",
          "name": "",
          "type": "address"
        }
      ],
      "stateMutability": "view",
      "type": "function"
    },
    {
      "inputs": [],
      "name": "MAP_FP2_TO_G2",
      "outputs": [
        {
          "internalType": "address",
          "name": "",
          "type": "address"
        }
      ],
      "stateMutability": "view",
      "type": "function"
    },
    {
      "inputs": [],
      "name": "MAP_FP_TO_G1",
      "outputs": [
        {
          "internalType": "address",
          "name": "",
          "type": "address"
        }
      ],
      "stateMutability": "view",
      "type": "function"
    },
    {
      "inputs": [],
      "name": "P",
      "outputs": [
        {
          "internalType": "bytes",
          "name": "",
          "type": "bytes"
        }
      ],
      "stateMutability": "view",
      "type": "function"
    },
    {
      "inputs": [],
      "name": "PAIRING",
      "outputs": [
        {
          "internalType": "address",
          "name": "",
          "type": "address"
        }
      ],
      "stateMutability": "view",
      "type": "function"
    },
    {
      "inputs": [],
      "name": "PubKey",
      "outputs": [
        {
          "internalType": "bytes",
          "name": "",
          "type": "bytes"
        }
      ],
      "stateMutability": "view",
      "type": "function"
    },
    {
      "inputs": [],
      "name": "PubKeyNegate",
      "outputs": [
        {
          "internalType": "bytes",
          "name": "",
          "type": "bytes"
        }
      ],
      "stateMutability": "view",
      "type": "function"
    },
    {
      "inputs": [],
      "name": "Z_pad",
      "outputs": [
        {
          "internalType": "bytes",
          "name": "",
          "type": "bytes"
        }
      ],
      "stateMutability": "view",
      "type": "function"
    },
    {
      "inputs": [
        {
          "internalType": "bytes",
          "name": "base",
          "type": "bytes"
        },
        {
          "internalType": "bytes",
          "name": "modulus",
          "type": "bytes"
        }
      ],
      "name": "callBigModExp",
      "outputs": [
        {
          "internalType": "bytes",
          "name": "result",
          "type": "bytes"
        }
      ],
      "stateMutability": "view",
      "type": "function"
    },
    {
      "inputs": [
        {
          "internalType": "bytes",
          "name": "_msg",
          "type": "bytes"
        }
      ],
      "name": "expand_message_xmd",
      "outputs": [
        {
          "internalType": "bytes",
          "name": "",
          "type": "bytes"
        }
      ],
      "stateMutability": "pure",
      "type": "function"
    },
    {
      "inputs": [
        {
          "internalType": "bytes",
          "name": "_msg",
          "type": "bytes"
        }
      ],
      "name": "hash_to_curve",
      "outputs": [
        {
          "internalType": "bytes",
          "name": "",
          "type": "bytes"
        }
      ],
      "stateMutability": "view",
      "type": "function"
    },
    {
      "inputs": [
        {
          "internalType": "bytes",
          "name": "_msg",
          "type": "bytes"
        }
      ],
      "name": "hash_to_field",
      "outputs": [
        {
          "internalType": "bytes",
          "name": "",
          "type": "bytes"
        },
        {
          "internalType": "bytes",
          "name": "",
          "type": "bytes"
        }
      ],
      "stateMutability": "view",
      "type": "function"
    },
    {
      "inputs": [
        {
          "internalType": "bytes",
          "name": "_msg",
          "type": "bytes"
        },
        {
          "internalType": "bytes",
          "name": "_sig",
          "type": "bytes"
        }
      ],
      "name": "verify",
      "outputs": [
        {
          "internalType": "bool",
          "name": "",
          "type": "bool"
        }
      ],
      "stateMutability": "view",
      "type": "function"
    }
  ],
  "transactionHash": "0xe372ba4892ee185ed2872467aa1248ffd536f76542321dad3ae1f030b22f5e35",
  "args": [],
  "solcInputHash": "7e3c34cec1f8fbb84624b7f33227c1b8",
  "bytecode": "0x608060405234801561001057600080fd5b50611fc7806100206000396000f3fe608060405234801561001057600080fd5b506004361061012c5760003560e01c80638d38982c116100ad578063f0a4439611610071578063f0a443961461032a578063f3aa547914610348578063f4f9089214610366578063f7e83aee14610396578063fe040461146103c65761012c565b80638d38982c146102945780639b349275146102b2578063b3b417b6146102d0578063bcff367c146102ee578063d5bf8e5f1461030c5761012c565b806341b27189116100f457806341b27189146101d9578063781588c1146101f757806386bd6dde1461022857806388eb2755146102585780638b8fbd92146102765761012c565b8063025ac515146101315780632f23ef5b14610161578063374bac481461017f5780633bc2261d1461019d5780633c52b683146101bb575b600080fd5b61014b6004803603810190610146919061137f565b6103e4565b604051610158919061188a565b60405180910390f35b61016961067b565b6040516101769190611854565b60405180910390f35b610187610680565b6040516101949190611854565b60405180910390f35b6101a5610685565b6040516101b29190611854565b60405180910390f35b6101c361068a565b6040516101d0919061188a565b60405180910390f35b6101e16106a6565b6040516101ee9190611854565b60405180910390f35b610211600480360381019061020c919061137f565b6106ab565b60405161021f9291906118ac565b60405180910390f35b610242600480360381019061023d91906113c0565b6109ce565b60405161024f919061188a565b60405180910390f35b610260610b1f565b60405161026d9190611854565b60405180910390f35b61027e610b24565b60405161028b919061188a565b60405180910390f35b61029c610b40565b6040516102a99190611854565b60405180910390f35b6102ba610b45565b6040516102c79190611854565b60405180910390f35b6102d8610b4a565b6040516102e5919061188a565b60405180910390f35b6102f6610b66565b6040516103039190611854565b60405180910390f35b610314610b6b565b604051610321919061188a565b60405180910390f35b610332610b87565b60405161033f919061188a565b60405180910390f35b610350610ba3565b60405161035d9190611854565b60405180910390f35b610380600480360381019061037b919061137f565b610ba8565b60405161038d919061188a565b60405180910390f35b6103b060048036038101906103ab91906113c0565b6110f0565b6040516103bd919061186f565b60405180910390f35b6103ce61129a565b6040516103db919061188a565b60405180910390f35b60608060606103f2846106ab565b8092508193505050600060608060ea73ffffffffffffffffffffffffffffffffffffffff1685604051602001610428919061174f565b604051602081830303815290604052604051610444919061174f565b600060405180830381855afa9150503d806000811461047f576040519150601f19603f3d011682016040523d82523d6000602084013e610484565b606091505b508093508194505050826104cd576040517f08c379a00000000000000000000000000000000000000000000000000000000081526004016104c490611943565b60405180910390fd5b60ea73ffffffffffffffffffffffffffffffffffffffff16846040516020016104f6919061174f565b604051602081830303815290604052604051610512919061174f565b600060405180830381855afa9150503d806000811461054d576040519150601f19603f3d011682016040523d82523d6000602084013e610552565b606091505b5080925081945050508261059b576040517f08c379a0000000000000000000000000000000000000000000000000000000008152600401610592906118e3565b60405180910390fd5b606060ef73ffffffffffffffffffffffffffffffffffffffff1683836040516020016105c8929190611766565b6040516020818303038152906040526040516105e4919061174f565b600060405180830381855afa9150503d806000811461061f576040519150601f19603f3d011682016040523d82523d6000602084013e610624565b606091505b5080925081955050508361066d576040517f08c379a000000000000000000000000000000000000000000000000000000000815260040161066490611963565b60405180910390fd5b809650505050505050919050565b60ec81565b60ef81565b60f181565b6040518060600160405280602c8152602001611ea6602c913981565b60f281565b60608060006106b984610ba8565b90506000604067ffffffffffffffff8111156106fe577f4e487b7100000000000000000000000000000000000000000000000000000000600052604160045260246000fd5b6040519080825280601f01601f1916602001820160405280156107305781602001600182028036833780820191505090505b5090506000604067ffffffffffffffff811115610776577f4e487b7100000000000000000000000000000000000000000000000000000000600052604160045260246000fd5b6040519080825280601f01601f1916602001820160405280156107a85781602001600182028036833780820191505090505b5090506000604067ffffffffffffffff8111156107ee577f4e487b7100000000000000000000000000000000000000000000000000000000600052604160045260246000fd5b6040519080825280601f01601f1916602001820160405280156108205781602001600182028036833780820191505090505b5090506000604067ffffffffffffffff811115610866577f4e487b7100000000000000000000000000000000000000000000000000000000600052604160045260246000fd5b6040519080825280601f01601f1916602001820160405280156108985781602001600182028036833780820191505090505b5090506020850151602085015260408501516040850152606085015160208401526080850151604084015260a0850151602083015260c0850151604083015260e08501516020820152610100850151604082015261090e84604051806060016040528060408152602001611e66604091396109ce565b935061093283604051806060016040528060408152602001611e66604091396109ce565b925061095682604051806060016040528060408152602001611e66604091396109ce565b915061097a81604051806060016040528060408152602001611e66604091396109ce565b9050838360405160200161098f929190611766565b60405160208183030381529060405282826040516020016109b1929190611766565b604051602081830303815290604052965096505050505050915091565b6060604067ffffffffffffffff811115610a11577f4e487b7100000000000000000000000000000000000000000000000000000000600052604160045260246000fd5b6040519080825280601f01601f191660200182016040528015610a435781602001600182028036833780820191505090505b5090506000600573ffffffffffffffffffffffffffffffffffffffff168484604051602001610a73929190611804565b604051602081830303815290604052604051610a8f919061174f565b600060405180830381855afa9150503d8060008114610aca576040519150601f19603f3d011682016040523d82523d6000602084013e610acf565b606091505b50809350819250505080610b18576040517f08c379a0000000000000000000000000000000000000000000000000000000008152600401610b0f90611903565b60405180910390fd5b5092915050565b60ed81565b604051806060016040528060408152602001611e666040913981565b60ee81565b60ea81565b604051806060016040528060408152602001611ed26040913981565b60f081565b6040518060a0016040528060808152602001611f126080913981565b6040518060a0016040528060808152602001611de66080913981565b60eb81565b6060610bb26112b6565b60006002604051806060016040528060408152602001611ed260409139856040518060600160405280602c8152602001611ea6602c9139604051602001610bfb939291906117c8565b604051602081830303815290604052604051610c17919061174f565b602060405180830381855afa158015610c34573d6000803e3d6000fd5b5050506040513d601f19601f82011682018060405250810190610c579190611356565b90506002816040518060600160405280602c8152602001611ea6602c9139604051602001610c869291906116e3565b604051602081830303815290604052604051610ca2919061174f565b602060405180830381855afa158015610cbf573d6000803e3d6000fd5b5050506040513d601f19601f82011682018060405250810190610ce29190611356565b82600060098110610d1c577f4e487b7100000000000000000000000000000000000000000000000000000000600052603260045260246000fd5b6020020181815250506000600190505b60088160ff1611610e7d57600083600183610d479190611a53565b60ff1660098110610d81577f4e487b7100000000000000000000000000000000000000000000000000000000600052603260045260246000fd5b602002015190508083189050600281600184610d9d9190611a1c565b6040518060600160405280602c8152602001611ea6602c9139604051602001610dc893929190611716565b604051602081830303815290604052604051610de4919061174f565b602060405180830381855afa158015610e01573d6000803e3d6000fd5b5050506040513d601f19601f82011682018060405250810190610e249190611356565b848360ff1660098110610e60577f4e487b7100000000000000000000000000000000000000000000000000000000600052603260045260246000fd5b602002018181525050508080610e7590611b4f565b915050610d2c565b50600082600060098110610eba577f4e487b7100000000000000000000000000000000000000000000000000000000600052603260045260246000fd5b602002015183600160098110610ef9577f4e487b7100000000000000000000000000000000000000000000000000000000600052603260045260246000fd5b602002015184600260098110610f38577f4e487b7100000000000000000000000000000000000000000000000000000000600052603260045260246000fd5b602002015185600360098110610f77577f4e487b7100000000000000000000000000000000000000000000000000000000600052603260045260246000fd5b602002015186600460098110610fb6577f4e487b7100000000000000000000000000000000000000000000000000000000600052603260045260246000fd5b602002015187600560098110610ff5577f4e487b7100000000000000000000000000000000000000000000000000000000600052603260045260246000fd5b602002015188600660098110611034577f4e487b7100000000000000000000000000000000000000000000000000000000600052603260045260246000fd5b602002015189600760098110611073577f4e487b7100000000000000000000000000000000000000000000000000000000600052603260045260246000fd5b60200201518a6008600981106110b2577f4e487b7100000000000000000000000000000000000000000000000000000000600052603260045260246000fd5b60200201516040516020016110cf99989796959493929190611640565b60405160208183030381529060405290506101008152809350505050919050565b60008060006110fe856103e4565b9050606060ec73ffffffffffffffffffffffffffffffffffffffff166040518060a0016040528060808152602001611de660809139836040518060a0016040528060808152602001611d666080913988604051602001611161949392919061178a565b60405160208183030381529060405260405161117d919061174f565b600060405180830381855afa9150503d80600081146111b8576040519150601f19603f3d011682016040523d82523d6000602084013e6111bd565b606091505b50809250819450505082611206576040517f08c379a00000000000000000000000000000000000000000000000000000000081526004016111fd90611923565b60405180910390fd5b7f010000000000000000000000000000000000000000000000000000000000000081601f81518110611261577f4e487b7100000000000000000000000000000000000000000000000000000000600052603260045260246000fd5b602001015160f81c60f81b7effffffffffffffffffffffffffffffffffffffffffffffffffffffffffffff191614935050505092915050565b6040518060a0016040528060808152602001611d666080913981565b604051806101200160405280600990602082028036833780820191505090505090565b60006112ec6112e7846119a8565b611983565b90508281526020810184848401111561130457600080fd5b61130f848285611adc565b509392505050565b60008151905061132681611d4e565b92915050565b600082601f83011261133d57600080fd5b813561134d8482602086016112d9565b91505092915050565b60006020828403121561136857600080fd5b600061137684828501611317565b91505092915050565b60006020828403121561139157600080fd5b600082013567ffffffffffffffff8111156113ab57600080fd5b6113b78482850161132c565b91505092915050565b600080604083850312156113d357600080fd5b600083013567ffffffffffffffff8111156113ed57600080fd5b6113f98582860161132c565b925050602083013567ffffffffffffffff81111561141657600080fd5b6114228582860161132c565b9150509250929050565b61143581611a87565b82525050565b61144481611a99565b82525050565b61145b61145682611aa5565b611b79565b82525050565b600061146c826119d9565b61147681856119e4565b9350611486818560208601611aeb565b61148f81611bf3565b840191505092915050565b60006114a5826119d9565b6114af81856119f5565b93506114bf818560208601611aeb565b80840191505092915050565b60006114d8601383611a00565b91506114e382611c11565b602082019050919050565b60006114fb602083611a11565b915061150682611c3a565b602082019050919050565b600061151e601083611a00565b915061152982611c44565b602082019050919050565b6000611541600183611a11565b915061154c82611c6d565b600182019050919050565b6000611564600e83611a00565b915061156f82611c96565b602082019050919050565b6000611587601383611a00565b915061159282611cbf565b602082019050919050565b60006115aa602083611a11565b91506115b582611ce8565b602082019050919050565b60006115cd602083611a11565b91506115d882611cf2565b602082019050919050565b60006115f0601283611a00565b91506115fb82611cfc565b602082019050919050565b6000611613600383611a11565b915061161e82611d25565b600382019050919050565b61163a61163582611acf565b611b83565b82525050565b600061164c828c61144a565b60208201915061165c828b61144a565b60208201915061166c828a61144a565b60208201915061167c828961144a565b60208201915061168c828861144a565b60208201915061169c828761144a565b6020820191506116ac828661144a565b6020820191506116bc828561144a565b6020820191506116cc828461144a565b6020820191508190509a9950505050505050505050565b60006116ef828561144a565b6020820191506116fe82611534565b915061170a828461149a565b91508190509392505050565b6000611722828661144a565b6020820191506117328285611629565b600182019150611742828461149a565b9150819050949350505050565b600061175b828461149a565b915081905092915050565b6000611772828561149a565b915061177e828461149a565b91508190509392505050565b6000611796828761149a565b91506117a2828661149a565b91506117ae828561149a565b91506117ba828461149a565b915081905095945050505050565b60006117d4828661149a565b91506117e0828561149a565b91506117eb82611606565b91506117f7828461149a565b9150819050949350505050565b600061180f826114ee565b915061181a826115c0565b9150611825826114ee565b9150611831828561149a565b915061183c8261159d565b9150611848828461149a565b91508190509392505050565b6000602082019050611869600083018461142c565b92915050565b6000602082019050611884600083018461143b565b92915050565b600060208201905081810360008301526118a48184611461565b905092915050565b600060408201905081810360008301526118c68185611461565b905081810360208301526118da8184611461565b90509392505050565b600060208201905081810360008301526118fc816114cb565b9050919050565b6000602082019050818103600083015261191c81611511565b9050919050565b6000602082019050818103600083015261193c81611557565b9050919050565b6000602082019050818103600083015261195c8161157a565b9050919050565b6000602082019050818103600083015261197c816115e3565b9050919050565b600061198d61199e565b90506119998282611b1e565b919050565b6000604051905090565b600067ffffffffffffffff8211156119c3576119c2611bc4565b5b6119cc82611bf3565b9050602081019050919050565b600081519050919050565b600082825260208201905092915050565b600081905092915050565b600082825260208201905092915050565b600081905092915050565b6000611a2782611acf565b9150611a3283611acf565b92508260ff03821115611a4857611a47611b95565b5b828201905092915050565b6000611a5e82611acf565b9150611a6983611acf565b925082821015611a7c57611a7b611b95565b5b828203905092915050565b6000611a9282611aaf565b9050919050565b60008115159050919050565b6000819050919050565b600073ffffffffffffffffffffffffffffffffffffffff82169050919050565b600060ff82169050919050565b82818337600083830152505050565b60005b83811015611b09578082015181840152602081019050611aee565b83811115611b18576000848401525b50505050565b611b2782611bf3565b810181811067ffffffffffffffff82111715611b4657611b45611bc4565b5b80604052505050565b6000611b5a82611acf565b915060ff821415611b6e57611b6d611b95565b5b600182019050919050565b6000819050919050565b6000611b8e82611c04565b9050919050565b7f4e487b7100000000000000000000000000000000000000000000000000000000600052601160045260246000fd5b7f4e487b7100000000000000000000000000000000000000000000000000000000600052604160045260246000fd5b6000601f19601f8301169050919050565b60008160f81b9050919050565b7f4d617020753120746f204732206661696c656400000000000000000000000000600082015250565b6040600082015250565b7f4269674d6f64457870206661696c656400000000000000000000000000000000600082015250565b7f0100000000000000000000000000000000000000000000000000000000000000600082015250565b7f50616972696e67206661696c6564000000000000000000000000000000000000600082015250565b7f4d617020753020746f204732206661696c656400000000000000000000000000600082015250565b6001600082015250565b6020600082015250565b7f4164642075702068617368206661696c65640000000000000000000000000000600082015250565b7f0100000000000000000000000000000000000000000000000000000000000000600082015250565b611d5781611aa5565b8114611d6257600080fd5b5056fe0000000000000000000000000000000017f1d3a73197d7942695638c4fa9ac0fc3688c4f9774b905a14e3a3f171bac586c55e83ff97a1aeffb3af00adb22c6bb0000000000000000000000000000000008b3f481e3aaa0f1a09e30ed741d8ae4fcf5e095d5d00af600db18cb2c04b3edd03cc744a2888ae40caa232946c5e7e1000000000000000000000000000000001971e835a1fe1a4d78e381eebbe0ddc84fde5119169db816900de796d10187f3c53d65c1202ac083d099a517f34a9b6200000000000000000000000000000000163b82c73664184d017ac0417de366616cf9c9e4dcf511f95ad4785a0d4824293232c103bf59953af51dfc82e84b7a34000000000000000000000000000000001a0111ea397fe69a4b1ba7b6434bacd764774b84f38512bf6730d2a0f6b0f6241eabfffeb153ffffb9feffffffffaaab424c535f5349475f424c53313233383147325f584d443a5348412d3235365f535357555f524f5f4e554c5f2b00000000000000000000000000000000000000000000000000000000000000000000000000000000000000000000000000000000000000000000000000000000000000000000000000000000000000001971e835a1fe1a4d78e381eebbe0ddc84fde5119169db816900de796d10187f3c53d65c1202ac083d099a517f34a9b620000000000000000000000000000000003c58f23031bce4d49a0e774c5684675f77d81a0169000c60c5c5a46e968d1faec793efaf1fa6ac4c4e1037d17b43077a2646970667358221220cacb0ba73ef657a9f34b78eb95f1df23ba5d723bef3d80243b478ad8a2a51dd364736f6c63430008040033",
  "devdoc": {
    "kind": "dev",
    "methods": {},
    "version": 1
  },
  "userdoc": {
    "kind": "user",
    "methods": {},
    "version": 1
  },
  "storageLayout": {
    "storage": [],
    "types": null
  }
}