{
  "address": "0x52430577E041aA1977d8FBb7349CD13725d2955F",
  "abi": [
    {
      "inputs": [
        {
          "internalType": "contract LitVerify",
          "name": "lit_verify_addr",
          "type": "address"
        }
      ],
      "stateMutability": "nonpayable",
      "type": "constructor"
    },
    {
      "anonymous": false,
      "inputs": [
        {
          "indexed": true,
          "internalType": "address",
          "name": "owner",
          "type": "address"
        },
        {
          "indexed": true,
          "internalType": "address",
          "name": "approved",
          "type": "address"
        },
        {
          "indexed": true,
          "internalType": "uint256",
          "name": "tokenId",
          "type": "uint256"
        }
      ],
      "name": "Approval",
      "type": "event"
    },
    {
      "anonymous": false,
      "inputs": [
        {
          "indexed": true,
          "internalType": "address",
          "name": "owner",
          "type": "address"
        },
        {
          "indexed": true,
          "internalType": "address",
          "name": "operator",
          "type": "address"
        },
        {
          "indexed": false,
          "internalType": "bool",
          "name": "approved",
          "type": "bool"
        }
      ],
      "name": "ApprovalForAll",
      "type": "event"
    },
    {
      "anonymous": false,
      "inputs": [
        {
          "indexed": true,
          "internalType": "address",
          "name": "from",
          "type": "address"
        },
        {
          "indexed": true,
          "internalType": "address",
          "name": "to",
          "type": "address"
        },
        {
          "indexed": true,
          "internalType": "uint256",
          "name": "tokenId",
          "type": "uint256"
        }
      ],
      "name": "Transfer",
      "type": "event"
    },
    {
      "inputs": [],
      "name": "DST_Prime",
      "outputs": [
        {
          "internalType": "bytes",
          "name": "",
          "type": "bytes"
        }
      ],
      "stateMutability": "view",
      "type": "function"
    },
    {
      "inputs": [],
      "name": "G1ADD",
      "outputs": [
        {
          "internalType": "address",
          "name": "",
          "type": "address"
        }
      ],
      "stateMutability": "view",
      "type": "function"
    },
    {
      "inputs": [],
      "name": "G1Base",
      "outputs": [
        {
          "internalType": "bytes",
          "name": "",
          "type": "bytes"
        }
      ],
      "stateMutability": "view",
      "type": "function"
    },
    {
      "inputs": [],
      "name": "G1MUL",
      "outputs": [
        {
          "internalType": "address",
          "name": "",
          "type": "address"
        }
      ],
      "stateMutability": "view",
      "type": "function"
    },
    {
      "inputs": [],
      "name": "G1MULTIEXP",
      "outputs": [
        {
          "internalType": "address",
          "name": "",
          "type": "address"
        }
      ],
      "stateMutability": "view",
      "type": "function"
    },
    {
      "inputs": [],
      "name": "G2ADD",
      "outputs": [
        {
          "internalType": "address",
          "name": "",
          "type": "address"
        }
      ],
      "stateMutability": "view",
      "type": "function"
    },
    {
      "inputs": [],
      "name": "G2MUL",
      "outputs": [
        {
          "internalType": "address",
          "name": "",
          "type": "address"
        }
      ],
      "stateMutability": "view",
      "type": "function"
    },
    {
      "inputs": [],
      "name": "G2MULTIEXP",
      "outputs": [
        {
          "internalType": "address",
          "name": "",
          "type": "address"
        }
      ],
      "stateMutability": "view",
      "type": "function"
    },
    {
      "inputs": [],
      "name": "MAP_FP2_TO_G2",
      "outputs": [
        {
          "internalType": "address",
          "name": "",
          "type": "address"
        }
      ],
      "stateMutability": "view",
      "type": "function"
    },
    {
      "inputs": [],
      "name": "MAP_FP_TO_G1",
      "outputs": [
        {
          "internalType": "address",
          "name": "",
          "type": "address"
        }
      ],
      "stateMutability": "view",
      "type": "function"
    },
    {
      "inputs": [],
      "name": "P",
      "outputs": [
        {
          "internalType": "bytes",
          "name": "",
          "type": "bytes"
        }
      ],
      "stateMutability": "view",
      "type": "function"
    },
    {
      "inputs": [],
      "name": "PAIRING",
      "outputs": [
        {
          "internalType": "address",
          "name": "",
          "type": "address"
        }
      ],
      "stateMutability": "view",
      "type": "function"
    },
    {
      "inputs": [],
      "name": "PubKey",
      "outputs": [
        {
          "internalType": "bytes",
          "name": "",
          "type": "bytes"
        }
      ],
      "stateMutability": "view",
      "type": "function"
    },
    {
      "inputs": [],
      "name": "PubKeyNegate",
      "outputs": [
        {
          "internalType": "bytes",
          "name": "",
          "type": "bytes"
        }
      ],
      "stateMutability": "view",
      "type": "function"
    },
    {
      "inputs": [],
      "name": "Z_pad",
      "outputs": [
        {
          "internalType": "bytes",
          "name": "",
          "type": "bytes"
        }
      ],
      "stateMutability": "view",
      "type": "function"
    },
    {
      "inputs": [
        {
          "internalType": "address",
          "name": "to",
          "type": "address"
        },
        {
          "internalType": "uint256",
          "name": "tokenId",
          "type": "uint256"
        }
      ],
      "name": "approve",
      "outputs": [],
      "stateMutability": "nonpayable",
      "type": "function"
    },
    {
      "inputs": [
        {
          "internalType": "address",
          "name": "",
          "type": "address"
        }
      ],
      "name": "balanceOf",
      "outputs": [
        {
          "internalType": "uint256",
          "name": "",
          "type": "uint256"
        }
      ],
      "stateMutability": "view",
      "type": "function"
    },
    {
      "inputs": [
        {
          "internalType": "bytes",
          "name": "base",
          "type": "bytes"
        },
        {
          "internalType": "bytes",
          "name": "modulus",
          "type": "bytes"
        }
      ],
      "name": "callBigModExp",
      "outputs": [
        {
          "internalType": "bytes",
          "name": "result",
          "type": "bytes"
        }
      ],
      "stateMutability": "view",
      "type": "function"
    },
    {
      "inputs": [
        {
          "internalType": "string",
          "name": "headerJson",
          "type": "string"
        },
        {
          "internalType": "string",
          "name": "payloadJson",
          "type": "string"
        },
        {
          "internalType": "bytes",
          "name": "signature",
          "type": "bytes"
        }
      ],
      "name": "claim",
      "outputs": [],
      "stateMutability": "nonpayable",
      "type": "function"
    },
    {
      "inputs": [
        {
          "internalType": "bytes",
          "name": "_msg",
          "type": "bytes"
        }
      ],
      "name": "expand_message_xmd",
      "outputs": [
        {
          "internalType": "bytes",
          "name": "",
          "type": "bytes"
        }
      ],
      "stateMutability": "pure",
      "type": "function"
    },
    {
      "inputs": [
        {
          "internalType": "string",
          "name": "s",
          "type": "string"
        }
      ],
      "name": "fromHex",
      "outputs": [
        {
          "internalType": "bytes",
          "name": "",
          "type": "bytes"
        }
      ],
      "stateMutability": "view",
      "type": "function"
    },
    {
      "inputs": [
        {
          "internalType": "uint8",
          "name": "c",
          "type": "uint8"
        }
      ],
      "name": "fromHexChar",
      "outputs": [
        {
          "internalType": "uint8",
          "name": "",
          "type": "uint8"
        }
      ],
      "stateMutability": "pure",
      "type": "function"
    },
    {
      "inputs": [
        {
          "internalType": "uint256",
          "name": "tokenId",
          "type": "uint256"
        }
      ],
      "name": "getApproved",
      "outputs": [
        {
          "internalType": "address",
          "name": "operator",
          "type": "address"
        }
      ],
      "stateMutability": "view",
      "type": "function"
    },
    {
      "inputs": [
        {
          "internalType": "bytes",
          "name": "_msg",
          "type": "bytes"
        }
      ],
      "name": "hash_to_curve",
      "outputs": [
        {
          "internalType": "bytes",
          "name": "",
          "type": "bytes"
        }
      ],
      "stateMutability": "view",
      "type": "function"
    },
    {
      "inputs": [
        {
          "internalType": "bytes",
          "name": "_msg",
          "type": "bytes"
        }
      ],
      "name": "hash_to_field",
      "outputs": [
        {
          "internalType": "bytes",
          "name": "",
          "type": "bytes"
        },
        {
          "internalType": "bytes",
          "name": "",
          "type": "bytes"
        }
      ],
      "stateMutability": "view",
      "type": "function"
    },
    {
      "inputs": [
        {
          "internalType": "address",
          "name": "owner",
          "type": "address"
        },
        {
          "internalType": "address",
          "name": "operator",
          "type": "address"
        }
      ],
      "name": "isApprovedForAll",
      "outputs": [
        {
          "internalType": "bool",
          "name": "",
          "type": "bool"
        }
      ],
      "stateMutability": "view",
      "type": "function"
    },
    {
      "inputs": [
        {
          "internalType": "address",
          "name": "",
          "type": "address"
        },
        {
          "internalType": "uint256",
          "name": "",
          "type": "uint256"
        }
      ],
      "name": "lastCheck",
      "outputs": [
        {
          "internalType": "uint256",
          "name": "",
          "type": "uint256"
        }
      ],
      "stateMutability": "view",
      "type": "function"
    },
    {
      "inputs": [
        {
          "internalType": "address",
          "name": "",
          "type": "address"
        },
        {
          "internalType": "uint256",
          "name": "",
          "type": "uint256"
        }
      ],
      "name": "mapId",
      "outputs": [
        {
          "internalType": "uint256",
          "name": "",
          "type": "uint256"
        }
      ],
      "stateMutability": "view",
      "type": "function"
    },
    {
      "inputs": [],
      "name": "name",
      "outputs": [
        {
          "internalType": "string",
          "name": "",
          "type": "string"
        }
      ],
      "stateMutability": "view",
      "type": "function"
    },
    {
      "inputs": [
        {
          "internalType": "uint256",
          "name": "",
          "type": "uint256"
        }
      ],
      "name": "originalAddress",
      "outputs": [
        {
          "internalType": "address",
          "name": "",
          "type": "address"
        }
      ],
      "stateMutability": "view",
      "type": "function"
    },
    {
      "inputs": [
        {
          "internalType": "uint256",
          "name": "",
          "type": "uint256"
        }
      ],
      "name": "originalTokenId",
      "outputs": [
        {
          "internalType": "uint256",
          "name": "",
          "type": "uint256"
        }
      ],
      "stateMutability": "view",
      "type": "function"
    },
    {
      "inputs": [
        {
          "internalType": "uint256",
          "name": "",
          "type": "uint256"
        }
      ],
      "name": "ownerOf",
      "outputs": [
        {
          "internalType": "address",
          "name": "",
          "type": "address"
        }
      ],
      "stateMutability": "view",
      "type": "function"
    },
    {
      "inputs": [
        {
          "internalType": "address",
          "name": "from",
          "type": "address"
        },
        {
          "internalType": "address",
          "name": "to",
          "type": "address"
        },
        {
          "internalType": "uint256",
          "name": "tokenId",
          "type": "uint256"
        }
      ],
      "name": "safeTransferFrom",
      "outputs": [],
      "stateMutability": "nonpayable",
      "type": "function"
    },
    {
      "inputs": [
        {
          "internalType": "address",
          "name": "from",
          "type": "address"
        },
        {
          "internalType": "address",
          "name": "to",
          "type": "address"
        },
        {
          "internalType": "uint256",
          "name": "tokenId",
          "type": "uint256"
        },
        {
          "internalType": "bytes",
          "name": "_data",
          "type": "bytes"
        }
      ],
      "name": "safeTransferFrom",
      "outputs": [],
      "stateMutability": "nonpayable",
      "type": "function"
    },
    {
      "inputs": [
        {
          "internalType": "address",
          "name": "operator",
          "type": "address"
        },
        {
          "internalType": "bool",
          "name": "approved",
          "type": "bool"
        }
      ],
      "name": "setApprovalForAll",
      "outputs": [],
      "stateMutability": "nonpayable",
      "type": "function"
    },
    {
      "inputs": [
        {
          "internalType": "bytes4",
          "name": "interfaceId",
          "type": "bytes4"
        }
      ],
      "name": "supportsInterface",
      "outputs": [
        {
          "internalType": "bool",
          "name": "",
          "type": "bool"
        }
      ],
      "stateMutability": "view",
      "type": "function"
    },
    {
      "inputs": [],
      "name": "symbol",
      "outputs": [
        {
          "internalType": "string",
          "name": "",
          "type": "string"
        }
      ],
      "stateMutability": "view",
      "type": "function"
    },
    {
      "inputs": [
        {
          "internalType": "uint256",
          "name": "",
          "type": "uint256"
        }
      ],
      "name": "tokenURI",
      "outputs": [
        {
          "internalType": "string",
          "name": "",
          "type": "string"
        }
      ],
      "stateMutability": "view",
      "type": "function"
    },
    {
      "inputs": [],
      "name": "totalSupply",
      "outputs": [
        {
          "internalType": "uint256",
          "name": "",
          "type": "uint256"
        }
      ],
      "stateMutability": "view",
      "type": "function"
    },
    {
      "inputs": [
        {
          "internalType": "address",
          "name": "from",
          "type": "address"
        },
        {
          "internalType": "address",
          "name": "to",
          "type": "address"
        },
        {
          "internalType": "uint256",
          "name": "tokenId",
          "type": "uint256"
        }
      ],
      "name": "transferFrom",
      "outputs": [],
      "stateMutability": "nonpayable",
      "type": "function"
    },
    {
      "inputs": [
        {
          "internalType": "bytes",
          "name": "_msg",
          "type": "bytes"
        },
        {
          "internalType": "bytes",
          "name": "_sig",
          "type": "bytes"
        }
      ],
      "name": "verify",
      "outputs": [
        {
          "internalType": "bool",
          "name": "",
          "type": "bool"
        }
      ],
      "stateMutability": "view",
      "type": "function"
    }
  ],
  "transactionHash": "0x7e26a7006164f726d62943e8afc82de663e51faa19e336b7ee1a017349a0b228",
  "args": [
    "0x88DCA5daE53DC13EBB8bd4E65Dc0c8a2D384bc88"
  ],
  "solcInputHash": "7e3c34cec1f8fbb84624b7f33227c1b8",
  "bytecode": "0x60806040526040518060400160405280601481526020017f4d6972726f724e4654202d20457468657265756d000000000000000000000000815250600090805190602001906200005192919062000120565b506040518060400160405280600681526020017f6574684e46540000000000000000000000000000000000000000000000000000815250600190805190602001906200009f92919062000120565b506000600955348015620000b257600080fd5b506040516200861d3803806200861d8339818101604052810190620000d89190620001e7565b80600a60006101000a81548173ffffffffffffffffffffffffffffffffffffffff021916908373ffffffffffffffffffffffffffffffffffffffff16021790555050620002da565b8280546200012e906200025b565b90600052602060002090601f0160209004810192826200015257600085556200019e565b82601f106200016d57805160ff19168380011785556200019e565b828001600101855582156200019e579182015b828111156200019d57825182559160200191906001019062000180565b5b509050620001ad9190620001b1565b5090565b5b80821115620001cc576000816000905550600101620001b2565b5090565b600081519050620001e181620002c0565b92915050565b600060208284031215620001fa57600080fd5b60006200020a84828501620001d0565b91505092915050565b600062000220826200023b565b9050919050565b6000620002348262000213565b9050919050565b600073ffffffffffffffffffffffffffffffffffffffff82169050919050565b600060028204905060018216806200027457607f821691505b602082108114156200028b576200028a62000291565b5b50919050565b7f4e487b7100000000000000000000000000000000000000000000000000000000600052602260045260246000fd5b620002cb8162000227565b8114620002d757600080fd5b50565b61833380620002ea6000396000f3fe608060405234801561001057600080fd5b50600436106102535760003560e01c806386bd6dde11610146578063bcff367c116100c3578063f3aa547911610087578063f3aa547914610751578063f4f908921461076f578063f7e83aee1461079f578063f81a7275146107cf578063fa621ac0146107ff578063fe0404611461082f57610253565b8063bcff367c14610697578063c87b56dd146106b5578063d5bf8e5f146106e5578063e985e9c514610703578063f0a443961461073357610253565b806395d89b411161010a57806395d89b41146106055780639b34927514610623578063a22cb46514610641578063b3b417b61461065d578063b88d4fde1461067b57610253565b806386bd6dde1461054b57806388eb27551461057b5780638b8fbd92146105995780638d38982c146105b75780638e7e34d7146105d557610253565b80632f23ef5b116101d457806342842e0e1161019857806342842e0e146104825780635e868c7c1461049e5780636352211e146104ba57806370a08231146104ea578063781588c11461051a57610253565b80632f23ef5b146103ec578063374bac481461040a5780633bc2261d146104285780633c52b6831461044657806341b271891461046457610253565b806318160ddd1161021b57806318160ddd1461032257806323b872dd1461034057806328d44de21461035c5780632a18624f1461038c5780632ecb20d3146103bc57610253565b806301ffc9a714610258578063025ac5151461028857806306fdde03146102b8578063081812fc146102d6578063095ea7b314610306575b600080fd5b610272600480360381019061026d9190616941565b61084d565b60405161027f9190617139565b60405180910390f35b6102a2600480360381019061029d919061696a565b61091f565b6040516102af9190617154565b60405180910390f35b6102c0610bb6565b6040516102cd91906171ad565b60405180910390f35b6102f060048036038101906102eb9190616aef565b610c44565b6040516102fd919061711e565b60405180910390f35b610320600480360381019061031b91906168b3565b610c81565b005b61032a610cbc565b60405161033791906173af565b60405180910390f35b61035a600480360381019061035591906167ad565b610cc2565b005b610376600480360381019061037191906168b3565b610cfd565b60405161038391906173af565b60405180910390f35b6103a660048036038101906103a19190616aef565b610d22565b6040516103b391906173af565b60405180910390f35b6103d660048036038101906103d19190616b18565b610d3a565b6040516103e391906173ca565b60405180910390f35b6103f46110a5565b604051610401919061711e565b60405180910390f35b6104126110aa565b60405161041f919061711e565b60405180910390f35b6104306110af565b60405161043d919061711e565b60405180910390f35b61044e6110b4565b60405161045b9190617154565b60405180910390f35b61046c6110d0565b604051610479919061711e565b60405180910390f35b61049c600480360381019061049791906167ad565b6110d5565b005b6104b860048036038101906104b39190616a58565b611110565b005b6104d460048036038101906104cf9190616aef565b612162565b6040516104e1919061711e565b60405180910390f35b61050460048036038101906104ff9190616748565b612195565b60405161051191906173af565b60405180910390f35b610534600480360381019061052f919061696a565b6121ad565b604051610542929190617176565b60405180910390f35b610565600480360381019061056091906169ab565b6124d0565b6040516105729190617154565b60405180910390f35b610583612621565b604051610590919061711e565b60405180910390f35b6105a1612626565b6040516105ae9190617154565b60405180910390f35b6105bf612642565b6040516105cc919061711e565b60405180910390f35b6105ef60048036038101906105ea9190616a17565b612647565b6040516105fc9190617154565b60405180910390f35b61060d6129b6565b60405161061a91906171ad565b60405180910390f35b61062b612a44565b604051610638919061711e565b60405180910390f35b61065b60048036038101906106569190616877565b612a49565b005b610665612a84565b6040516106729190617154565b60405180910390f35b610695600480360381019061069091906167fc565b612aa0565b005b61069f612adb565b6040516106ac919061711e565b60405180910390f35b6106cf60048036038101906106ca9190616aef565b612ae0565b6040516106dc91906171ad565b60405180910390f35b6106ed612b80565b6040516106fa9190617154565b60405180910390f35b61071d60048036038101906107189190616771565b612b9c565b60405161072a9190617139565b60405180910390f35b61073b612bd9565b6040516107489190617154565b60405180910390f35b610759612bf5565b604051610766919061711e565b60405180910390f35b6107896004803603810190610784919061696a565b612bfa565b6040516107969190617154565b60405180910390f35b6107b960048036038101906107b491906169ab565b613142565b6040516107c69190617139565b60405180910390f35b6107e960048036038101906107e49190616aef565b6132ec565b6040516107f6919061711e565b60405180910390f35b610819600480360381019061081491906168b3565b61331f565b60405161082691906173af565b60405180910390f35b610837613344565b6040516108449190617154565b60405180910390f35b60007f80ac58cd000000000000000000000000000000000000000000000000000000007bffffffffffffffffffffffffffffffffffffffffffffffffffffffff1916827bffffffffffffffffffffffffffffffffffffffffffffffffffffffff1916148061091857507f5b5e139f000000000000000000000000000000000000000000000000000000007bffffffffffffffffffffffffffffffffffffffffffffffffffffffff1916827bffffffffffffffffffffffffffffffffffffffffffffffffffffffff1916145b9050919050565b606080606061092d846121ad565b8092508193505050600060608060ea73ffffffffffffffffffffffffffffffffffffffff16856040516020016109639190617019565b60405160208183030381529060405260405161097f9190617019565b600060405180830381855afa9150503d80600081146109ba576040519150601f19603f3d011682016040523d82523d6000602084013e6109bf565b606091505b50809350819450505082610a08576040517f08c379a00000000000000000000000000000000000000000000000000000000081526004016109ff906172af565b60405180910390fd5b60ea73ffffffffffffffffffffffffffffffffffffffff1684604051602001610a319190617019565b604051602081830303815290604052604051610a4d9190617019565b600060405180830381855afa9150503d8060008114610a88576040519150601f19603f3d011682016040523d82523d6000602084013e610a8d565b606091505b50809250819450505082610ad6576040517f08c379a0000000000000000000000000000000000000000000000000000000008152600401610acd906171cf565b60405180910390fd5b606060ef73ffffffffffffffffffffffffffffffffffffffff168383604051602001610b03929190617030565b604051602081830303815290604052604051610b1f9190617019565b600060405180830381855afa9150503d8060008114610b5a576040519150601f19603f3d011682016040523d82523d6000602084013e610b5f565b606091505b50809250819550505083610ba8576040517f08c379a0000000000000000000000000000000000000000000000000000000008152600401610b9f9061738f565b60405180910390fd5b809650505050505050919050565b60008054610bc390617b26565b80601f0160208091040260200160405190810160405280929190818152602001828054610bef90617b26565b8015610c3c5780601f10610c1157610100808354040283529160200191610c3c565b820191906000526020600020905b815481529060010190602001808311610c1f57829003601f168201915b505050505081565b60006040517f08c379a0000000000000000000000000000000000000000000000000000000008152600401610c789061732f565b60405180910390fd5b6040517f08c379a0000000000000000000000000000000000000000000000000000000008152600401610cb39061732f565b60405180910390fd5b60095481565b6040517f08c379a0000000000000000000000000000000000000000000000000000000008152600401610cf49061732f565b60405180910390fd5b6005602052816000526040600020602052806000526040600020600091509150505481565b60036020528060005260406000206000915090505481565b60007f30000000000000000000000000000000000000000000000000000000000000007effffffffffffffffffffffffffffffffffffffffffffffffffffffffffffff19168260f81b7effffffffffffffffffffffffffffffffffffffffffffffffffffffffffffff191610158015610e1a57507f39000000000000000000000000000000000000000000000000000000000000007effffffffffffffffffffffffffffffffffffffffffffffffffffffffffffff19168260f81b7effffffffffffffffffffffffffffffffffffffffffffffffffffffffffffff191611155b15610e55577f300000000000000000000000000000000000000000000000000000000000000060f81c82610e4e91906179f1565b90506110a0565b7f61000000000000000000000000000000000000000000000000000000000000007effffffffffffffffffffffffffffffffffffffffffffffffffffffffffffff19168260f81b7effffffffffffffffffffffffffffffffffffffffffffffffffffffffffffff191610158015610f3357507f66000000000000000000000000000000000000000000000000000000000000007effffffffffffffffffffffffffffffffffffffffffffffffffffffffffffff19168260f81b7effffffffffffffffffffffffffffffffffffffffffffffffffffffffffffff191611155b15610f7a577f610000000000000000000000000000000000000000000000000000000000000060f81c82600a610f6991906175a4565b610f7391906179f1565b90506110a0565b7f41000000000000000000000000000000000000000000000000000000000000007effffffffffffffffffffffffffffffffffffffffffffffffffffffffffffff19168260f81b7effffffffffffffffffffffffffffffffffffffffffffffffffffffffffffff19161015801561105857507f46000000000000000000000000000000000000000000000000000000000000007effffffffffffffffffffffffffffffffffffffffffffffffffffffffffffff19168260f81b7effffffffffffffffffffffffffffffffffffffffffffffffffffffffffffff191611155b1561109f577f410000000000000000000000000000000000000000000000000000000000000060f81c82600a61108e91906175a4565b61109891906179f1565b90506110a0565b5b919050565b60ec81565b60ef81565b60f181565b6040518060600160405280602c8152602001618212602c913981565b60f281565b6040517f08c379a00000000000000000000000000000000000000000000000000000000081526004016111079061732f565b60405180910390fd5b600061111b84613360565b9050600061112884613360565b90506000600267ffffffffffffffff81111561116d577f4e487b7100000000000000000000000000000000000000000000000000000000600052604160045260246000fd5b6040519080825280602002602001820160405280156111a657816020015b61119361646f565b81526020019060019003908161118b5790505b5090506111b283613985565b816000815181106111ec577f4e487b7100000000000000000000000000000000000000000000000000000000600052603260045260246000fd5b602002602001018190525061120082613985565b8160018151811061123a577f4e487b7100000000000000000000000000000000000000000000000000000000600052603260045260246000fd5b60200260200101819052506000611297826112896040518060400160405280600181526020017f2e00000000000000000000000000000000000000000000000000000000000000815250613985565b6139b390919063ffffffff16565b90506112a281613c35565b6112ab85613c35565b600a60009054906101000a900473ffffffffffffffffffffffffffffffffffffffff1673ffffffffffffffffffffffffffffffffffffffff1663f7e83aee82876040518363ffffffff1660e01b8152600401611308929190617176565b60206040518083038186803b15801561132057600080fd5b505afa158015611334573d6000803e3d6000fd5b505050506040513d601f19601f8201168201806040525081019061135891906168ef565b611397576040517f08c379a000000000000000000000000000000000000000000000000000000000815260040161138e9061730f565b60405180910390fd5b5050505060008060006113b4601a86613cce90919063ffffffff16565b925092509250600083146113fd576040517f08c379a00000000000000000000000000000000000000000000000000000000081526004016113f4906172cf565b60405180910390fd5b60198114611440576040517f08c379a00000000000000000000000000000000000000000000000000000000081526004016114379061736f565b60405180910390fd5b60006114e18360048151811061147f577f4e487b7100000000000000000000000000000000000000000000000000000000600052603260045260246000fd5b602002602001015160200151846004815181106114c5577f4e487b7100000000000000000000000000000000000000000000000000000000600052603260045260246000fd5b60200260200101516060015188614ecd9092919063ffffffff16565b9050600061152d6040518060400160405280600881526020017f657468657265756d0000000000000000000000000000000000000000000000008152508361503b90919063ffffffff16565b1461156d576040517f08c379a00000000000000000000000000000000000000000000000000000000081526004016115649061734f565b60405180910390fd5b50600061160f836008815181106115ad577f4e487b7100000000000000000000000000000000000000000000000000000000600052603260045260246000fd5b602002602001015160200151846008815181106115f3577f4e487b7100000000000000000000000000000000000000000000000000000000600052603260045260246000fd5b60200260200101516060015188614ecd9092919063ffffffff16565b90504261161b826152af565b1361165b576040517f08c379a00000000000000000000000000000000000000000000000000000000081526004016116529061726f565b60405180910390fd5b506000806116fe8460088151811061169c577f4e487b7100000000000000000000000000000000000000000000000000000000600052603260045260246000fd5b602002602001015160200151856008815181106116e2577f4e487b7100000000000000000000000000000000000000000000000000000000600052603260045260246000fd5b60200260200101516060015189614ecd9092919063ffffffff16565b9050611709816152af565b9150506000806117ae85600d8151811061174c577f4e487b7100000000000000000000000000000000000000000000000000000000600052603260045260246000fd5b60200260200101516020015186600d81518110611792577f4e487b7100000000000000000000000000000000000000000000000000000000600052603260045260246000fd5b6020026020010151606001518a614ecd9092919063ffffffff16565b90506000611851866012815181106117ef577f4e487b7100000000000000000000000000000000000000000000000000000000600052603260045260246000fd5b60200260200101516020015187601281518110611835577f4e487b7100000000000000000000000000000000000000000000000000000000600052603260045260246000fd5b6020026020010151606001518b614ecd9092919063ffffffff16565b90506000611868828461503b90919063ffffffff16565b146118a8576040517f08c379a000000000000000000000000000000000000000000000000000000000815260040161189f9061720f565b60405180910390fd5b60006118b383612647565b90506014810151935050505060008061196186600f815181106118ff577f4e487b7100000000000000000000000000000000000000000000000000000000600052603260045260246000fd5b60200260200101516020015187600f81518110611945577f4e487b7100000000000000000000000000000000000000000000000000000000600052603260045260246000fd5b6020026020010151606001518b614ecd9092919063ffffffff16565b905060008061196f83612647565b905060208101519150602481015193507fc87b56dd00000000000000000000000000000000000000000000000000000000827bffffffffffffffffffffffffffffffffffffffffffffffffffffffff191614611a00576040517f08c379a00000000000000000000000000000000000000000000000000000000081526004016119f7906171ef565b60405180910390fd5b6000611aa189601481518110611a3f577f4e487b7100000000000000000000000000000000000000000000000000000000600052603260045260246000fd5b6020026020010151602001518a601481518110611a85577f4e487b7100000000000000000000000000000000000000000000000000000000600052603260045260246000fd5b6020026020010151606001518e614ecd9092919063ffffffff16565b9050611aac81612647565b9150600060208301519350602483015190507f6352211e00000000000000000000000000000000000000000000000000000000847bffffffffffffffffffffffffffffffffffffffffffffffffffffffff191614611b3f576040517f08c379a0000000000000000000000000000000000000000000000000000000008152600401611b36906172ef565b60405180910390fd5b808614611b81576040517f08c379a0000000000000000000000000000000000000000000000000000000008152600401611b789061724f565b60405180910390fd5b505050505060606000611c35608288601781518110611bc9577f4e487b7100000000000000000000000000000000000000000000000000000000600052603260045260246000fd5b602002602001015160200151611bdf919061754e565b88601781518110611c19577f4e487b7100000000000000000000000000000000000000000000000000000000600052603260045260246000fd5b6020026020010151606001518c614ecd9092919063ffffffff16565b9050611c4081612647565b915050600080611ce588601881518110611c83577f4e487b7100000000000000000000000000000000000000000000000000000000600052603260045260246000fd5b60200260200101516020015189601881518110611cc9577f4e487b7100000000000000000000000000000000000000000000000000000000600052603260045260246000fd5b6020026020010151606001518d614ecd9092919063ffffffff16565b90506000611cf282612647565b90506020810151925050506000600560008673ffffffffffffffffffffffffffffffffffffffff1673ffffffffffffffffffffffffffffffffffffffff168152602001908152602001600020600085815260200190815260200160002054905060008114611ef35760006007600083815260200190815260200160002060009054906101000a900473ffffffffffffffffffffffffffffffffffffffff1690506001600660008373ffffffffffffffffffffffffffffffffffffffff1673ffffffffffffffffffffffffffffffffffffffff1681526020019081526020016000206000828254611de291906179bd565b925050819055506001600660008573ffffffffffffffffffffffffffffffffffffffff1673ffffffffffffffffffffffffffffffffffffffff1681526020019081526020016000206000828254611e39919061754e565b92505081905550826007600084815260200190815260200160002060006101000a81548173ffffffffffffffffffffffffffffffffffffffff021916908373ffffffffffffffffffffffffffffffffffffffff160217905550818373ffffffffffffffffffffffffffffffffffffffff168273ffffffffffffffffffffffffffffffffffffffff167fddf252ad1be2c89b69c2b068fc378daa952ba7f163c4a11628f55a4df523b3ef60405160405180910390a4506120d7565b600160096000828254611f06919061754e565b925050819055506009549050846002600083815260200190815260200160002060006101000a81548173ffffffffffffffffffffffffffffffffffffffff021916908373ffffffffffffffffffffffffffffffffffffffff16021790555083600360008381526020019081526020016000208190555080600560008773ffffffffffffffffffffffffffffffffffffffff1673ffffffffffffffffffffffffffffffffffffffff1681526020019081526020016000206000868152602001908152602001600020819055506001600660008473ffffffffffffffffffffffffffffffffffffffff1673ffffffffffffffffffffffffffffffffffffffff1681526020019081526020016000206000828254612021919061754e565b92505081905550816007600083815260200190815260200160002060006101000a81548173ffffffffffffffffffffffffffffffffffffffff021916908373ffffffffffffffffffffffffffffffffffffffff160217905550808273ffffffffffffffffffffffffffffffffffffffff16600073ffffffffffffffffffffffffffffffffffffffff167fddf252ad1be2c89b69c2b068fc378daa952ba7f163c4a11628f55a4df523b3ef60405160405180910390a45b85600460008773ffffffffffffffffffffffffffffffffffffffff1673ffffffffffffffffffffffffffffffffffffffff16815260200190815260200160002060008681526020019081526020016000208190555082600860008381526020019081526020016000209080519060200190612153929190616489565b50505050505050505050505050565b60076020528060005260406000206000915054906101000a900473ffffffffffffffffffffffffffffffffffffffff1681565b60066020528060005260406000206000915090505481565b60608060006121bb84612bfa565b90506000604067ffffffffffffffff811115612200577f4e487b7100000000000000000000000000000000000000000000000000000000600052604160045260246000fd5b6040519080825280601f01601f1916602001820160405280156122325781602001600182028036833780820191505090505b5090506000604067ffffffffffffffff811115612278577f4e487b7100000000000000000000000000000000000000000000000000000000600052604160045260246000fd5b6040519080825280601f01601f1916602001820160405280156122aa5781602001600182028036833780820191505090505b5090506000604067ffffffffffffffff8111156122f0577f4e487b7100000000000000000000000000000000000000000000000000000000600052604160045260246000fd5b6040519080825280601f01601f1916602001820160405280156123225781602001600182028036833780820191505090505b5090506000604067ffffffffffffffff811115612368577f4e487b7100000000000000000000000000000000000000000000000000000000600052604160045260246000fd5b6040519080825280601f01601f19166020018201604052801561239a5781602001600182028036833780820191505090505b5090506020850151602085015260408501516040850152606085015160208401526080850151604084015260a0850151602083015260c0850151604083015260e085015160208201526101008501516040820152612410846040518060600160405280604081526020016181d2604091396124d0565b9350612434836040518060600160405280604081526020016181d2604091396124d0565b9250612458826040518060600160405280604081526020016181d2604091396124d0565b915061247c816040518060600160405280604081526020016181d2604091396124d0565b90508383604051602001612491929190617030565b60405160208183030381529060405282826040516020016124b3929190617030565b604051602081830303815290604052965096505050505050915091565b6060604067ffffffffffffffff811115612513577f4e487b7100000000000000000000000000000000000000000000000000000000600052604160045260246000fd5b6040519080825280601f01601f1916602001820160405280156125455781602001600182028036833780820191505090505b5090506000600573ffffffffffffffffffffffffffffffffffffffff1684846040516020016125759291906170ce565b6040516020818303038152906040526040516125919190617019565b600060405180830381855afa9150503d80600081146125cc576040519150601f19603f3d011682016040523d82523d6000602084013e6125d1565b606091505b5080935081925050508061261a576040517f08c379a00000000000000000000000000000000000000000000000000000000081526004016126119061722f565b60405180910390fd5b5092915050565b60ed81565b6040518060600160405280604081526020016181d26040913981565b60ee81565b6060600082905060007f3000000000000000000000000000000000000000000000000000000000000000826000815181106126ab577f4e487b7100000000000000000000000000000000000000000000000000000000600052603260045260246000fd5b602001015160f81c60f81b7effffffffffffffffffffffffffffffffffffffffffffffffffffffffffffff191614801561276a57507f78000000000000000000000000000000000000000000000000000000000000008260018151811061273b577f4e487b7100000000000000000000000000000000000000000000000000000000600052603260045260246000fd5b602001015160f81c60f81b7effffffffffffffffffffffffffffffffffffffffffffffffffffffffffffff1916145b1561277457600290505b6000600283516127849190617c18565b1461278e57600080fd5b6000600282845161279f91906179bd565b6127a991906175db565b67ffffffffffffffff8111156127e8577f4e487b7100000000000000000000000000000000000000000000000000000000600052604160045260246000fd5b6040519080825280601f01601f19166020018201604052801561281a5781602001600182028036833780820191505090505b50905060005b600283855161282f91906179bd565b61283991906175db565b8110156129aa576128b2848460018460026128549190617894565b61285e919061754e565b612868919061754e565b8151811061289f577f4e487b7100000000000000000000000000000000000000000000000000000000600052603260045260246000fd5b602001015160f81c60f81b60f81c610d3a565b601061291a86868560026128c69190617894565b6128d0919061754e565b81518110612907577f4e487b7100000000000000000000000000000000000000000000000000000000600052603260045260246000fd5b602001015160f81c60f81b60f81c610d3a565b61292491906178ee565b61292e91906175a4565b60f81b82828151811061296a577f4e487b7100000000000000000000000000000000000000000000000000000000600052603260045260246000fd5b60200101907effffffffffffffffffffffffffffffffffffffffffffffffffffffffffffff1916908160001a905350806129a390617b89565b9050612820565b50809350505050919050565b600180546129c390617b26565b80601f01602080910402602001604051908101604052809291908181526020018280546129ef90617b26565b8015612a3c5780601f10612a1157610100808354040283529160200191612a3c565b820191906000526020600020905b815481529060010190602001808311612a1f57829003601f168201915b505050505081565b60ea81565b6040517f08c379a0000000000000000000000000000000000000000000000000000000008152600401612a7b9061732f565b60405180910390fd5b60405180606001604052806040815260200161823e6040913981565b6040517f08c379a0000000000000000000000000000000000000000000000000000000008152600401612ad29061732f565b60405180910390fd5b60f081565b60086020528060005260406000206000915090508054612aff90617b26565b80601f0160208091040260200160405190810160405280929190818152602001828054612b2b90617b26565b8015612b785780601f10612b4d57610100808354040283529160200191612b78565b820191906000526020600020905b815481529060010190602001808311612b5b57829003601f168201915b505050505081565b6040518060a001604052806080815260200161827e6080913981565b60006040517f08c379a0000000000000000000000000000000000000000000000000000000008152600401612bd09061732f565b60405180910390fd5b6040518060a00160405280608081526020016181126080913981565b60eb81565b6060612c0461650f565b6000600260405180606001604052806040815260200161823e60409139856040518060600160405280602c8152602001618212602c9139604051602001612c4d93929190617092565b604051602081830303815290604052604051612c699190617019565b602060405180830381855afa158015612c86573d6000803e3d6000fd5b5050506040513d601f19601f82011682018060405250810190612ca99190616918565b90506002816040518060600160405280602c8152602001618212602c9139604051602001612cd8929190616fad565b604051602081830303815290604052604051612cf49190617019565b602060405180830381855afa158015612d11573d6000803e3d6000fd5b5050506040513d601f19601f82011682018060405250810190612d349190616918565b82600060098110612d6e577f4e487b7100000000000000000000000000000000000000000000000000000000600052603260045260246000fd5b6020020181815250506000600190505b60088160ff1611612ecf57600083600183612d9991906179f1565b60ff1660098110612dd3577f4e487b7100000000000000000000000000000000000000000000000000000000600052603260045260246000fd5b602002015190508083189050600281600184612def91906175a4565b6040518060600160405280602c8152602001618212602c9139604051602001612e1a93929190616fe0565b604051602081830303815290604052604051612e369190617019565b602060405180830381855afa158015612e53573d6000803e3d6000fd5b5050506040513d601f19601f82011682018060405250810190612e769190616918565b848360ff1660098110612eb2577f4e487b7100000000000000000000000000000000000000000000000000000000600052603260045260246000fd5b602002018181525050508080612ec790617bd2565b915050612d7e565b50600082600060098110612f0c577f4e487b7100000000000000000000000000000000000000000000000000000000600052603260045260246000fd5b602002015183600160098110612f4b577f4e487b7100000000000000000000000000000000000000000000000000000000600052603260045260246000fd5b602002015184600260098110612f8a577f4e487b7100000000000000000000000000000000000000000000000000000000600052603260045260246000fd5b602002015185600360098110612fc9577f4e487b7100000000000000000000000000000000000000000000000000000000600052603260045260246000fd5b602002015186600460098110613008577f4e487b7100000000000000000000000000000000000000000000000000000000600052603260045260246000fd5b602002015187600560098110613047577f4e487b7100000000000000000000000000000000000000000000000000000000600052603260045260246000fd5b602002015188600660098110613086577f4e487b7100000000000000000000000000000000000000000000000000000000600052603260045260246000fd5b6020020151896007600981106130c5577f4e487b7100000000000000000000000000000000000000000000000000000000600052603260045260246000fd5b60200201518a600860098110613104577f4e487b7100000000000000000000000000000000000000000000000000000000600052603260045260246000fd5b602002015160405160200161312199989796959493929190616f0a565b60405160208183030381529060405290506101008152809350505050919050565b60008060006131508561091f565b9050606060ec73ffffffffffffffffffffffffffffffffffffffff166040518060a001604052806080815260200161811260809139836040518060a001604052806080815260200161809260809139886040516020016131b39493929190617054565b6040516020818303038152906040526040516131cf9190617019565b600060405180830381855afa9150503d806000811461320a576040519150601f19603f3d011682016040523d82523d6000602084013e61320f565b606091505b50809250819450505082613258576040517f08c379a000000000000000000000000000000000000000000000000000000000815260040161324f9061728f565b60405180910390fd5b7f010000000000000000000000000000000000000000000000000000000000000081601f815181106132b3577f4e487b7100000000000000000000000000000000000000000000000000000000600052603260045260246000fd5b602001015160f81c60f81b7effffffffffffffffffffffffffffffffffffffffffffffffffffffffffffff191614935050505092915050565b60026020528060005260406000206000915054906101000a900473ffffffffffffffffffffffffffffffffffffffff1681565b6004602052816000526040600020602052806000526040600020600091509150505481565b6040518060a00160405280608081526020016180926080913981565b606060008290506000600382516133779190617c18565b90506000600382600361338a91906179bd565b6133949190617c18565b60046003600286516133a6919061754e565b6133b091906175db565b6133ba9190617894565b6133c491906179bd565b905060008167ffffffffffffffff811115613408577f4e487b7100000000000000000000000000000000000000000000000000000000600052604160045260246000fd5b6040519080825280601f01601f19166020018201604052801561343a5781602001600182028036833780820191505090505b5090506000805b8551600383613450919061754e565b1161373257613553868381518110613491577f4e487b7100000000000000000000000000000000000000000000000000000000600052603260045260246000fd5b602001015160f81c60f81b60f81c60ff16876001856134b0919061754e565b815181106134e7577f4e487b7100000000000000000000000000000000000000000000000000000000600052603260045260246000fd5b602001015160f81c60f81b60f81c60ff1688600286613506919061754e565b8151811061353d577f4e487b7100000000000000000000000000000000000000000000000000000000600052603260045260246000fd5b602001015160f81c60f81b60f81c60ff166152c3565b86858151811061358c577f4e487b7100000000000000000000000000000000000000000000000000000000600052603260045260246000fd5b602001018760018761359e919061754e565b815181106135d5577f4e487b7100000000000000000000000000000000000000000000000000000000600052603260045260246000fd5b60200101886002886135e7919061754e565b8151811061361e577f4e487b7100000000000000000000000000000000000000000000000000000000600052603260045260246000fd5b6020010189600389613630919061754e565b81518110613667577f4e487b7100000000000000000000000000000000000000000000000000000000600052603260045260246000fd5b60200101847effffffffffffffffffffffffffffffffffffffffffffffffffffffffffffff191660001a9053847effffffffffffffffffffffffffffffffffffffffffffffffffffffffffffff191660001a9053847effffffffffffffffffffffffffffffffffffffffffffffffffffffffffffff191660001a9053847effffffffffffffffffffffffffffffffffffffffffffffffffffffffffffff191660001a90535050505060048161371c919061754e565b905060038261372b919061754e565b9150613441565b600085146139775760008686885161374a91906179bd565b81518110613781577f4e487b7100000000000000000000000000000000000000000000000000000000600052603260045260246000fd5b602001015160f81c60f81b60f81c9050600060028714156137f35787600189516137ab91906179bd565b815181106137e2577f4e487b7100000000000000000000000000000000000000000000000000000000600052603260045260246000fd5b602001015160f81c60f81b60f81c90505b60008060008061380b8660ff168660ff1660006152c3565b93509350935093508389888151811061384d577f4e487b7100000000000000000000000000000000000000000000000000000000600052603260045260246000fd5b60200101907effffffffffffffffffffffffffffffffffffffffffffffffffffffffffffff1916908160001a905350828960018961388b919061754e565b815181106138c2577f4e487b7100000000000000000000000000000000000000000000000000000000600052603260045260246000fd5b60200101907effffffffffffffffffffffffffffffffffffffffffffffffffffffffffffff1916908160001a90535060028b1415613970578189600289613909919061754e565b81518110613940577f4e487b7100000000000000000000000000000000000000000000000000000000600052603260045260246000fd5b60200101907effffffffffffffffffffffffffffffffffffffffffffffffffffffffffffff1916908160001a9053505b5050505050505b829650505050505050919050565b61398d61646f565b600060208301905060405180604001604052808451815260200182815250915050919050565b60606000825114156139d657604051806020016040528060008152509050613c2f565b6000600183516139e691906179bd565b84600001516139f59190617894565b905060005b8351811015613a6857838181518110613a3c577f4e487b7100000000000000000000000000000000000000000000000000000000600052603260045260246000fd5b60200260200101516000015182613a53919061754e565b91508080613a6090617b89565b9150506139fa565b5060008167ffffffffffffffff811115613aab577f4e487b7100000000000000000000000000000000000000000000000000000000600052604160045260246000fd5b6040519080825280601f01601f191660200182016040528015613add5781602001600182028036833780820191505090505b509050600060208201905060005b8551811015613c2757613b8782878381518110613b31577f4e487b7100000000000000000000000000000000000000000000000000000000600052603260045260246000fd5b602002602001015160200151888481518110613b76577f4e487b7100000000000000000000000000000000000000000000000000000000600052603260045260246000fd5b60200260200101516000015161548c565b858181518110613bc0577f4e487b7100000000000000000000000000000000000000000000000000000000600052603260045260246000fd5b60200260200101516000015182613bd7919061754e565b915060018651613be791906179bd565b811015613c1457613c01828860200151896000015161548c565b866000015182613c11919061754e565b91505b8080613c1f90617b89565b915050613aeb565b508193505050505b92915050565b613ccb81604051602401613c499190617154565b6040516020818303038152906040527f0be77f56000000000000000000000000000000000000000000000000000000007bffffffffffffffffffffffffffffffffffffffffffffffffffffffff19166020820180517bffffffffffffffffffffffffffffffffffffffffffffffffffffffff838183161783525050505061550b565b50565b600060606000808590506000613ce2616532565b613ceb87615534565b8096508192505050600080826020015190506000613d07616553565b5b865185600001511015614eb057600087866000015181518110613d54577f4e487b7100000000000000000000000000000000000000000000000000000000600052603260045260246000fd5b602001015160f81c60f81b9050607b60f81b817effffffffffffffffffffffffffffffffffffffffffffffffffffffffffffff19161480613dba5750605b60f81b817effffffffffffffffffffffffffffffffffffffffffffffffffffffffffffff1916145b15613f79578380613dca90617b89565b945050613dd7868b61560a565b809350819850505086613dfc5760038a60009a509a509a505050505050505050614ec6565b7fffffffffffffffffffffffffffffffffffffffffffffffffffffffffffffffff866040015114613e885789866040015181518110613e64577f4e487b7100000000000000000000000000000000000000000000000000000000600052603260045260246000fd5b602002602001015160a0018051809190613e7d90617bd2565b60ff1660ff16815250505b607b60f81b817effffffffffffffffffffffffffffffffffffffffffffffffffffffffffffff191614613ebc576002613ebf565b60015b82600001906004811115613efc577f4e487b7100000000000000000000000000000000000000000000000000000000600052602160045260246000fd5b90816004811115613f36577f4e487b7100000000000000000000000000000000000000000000000000000000600052602160045260246000fd5b815250508560000151826020018181525050600182604001901515908115158152505060018660200151613f6a91906179bd565b86604001818152505050614e95565b607d60f81b817effffffffffffffffffffffffffffffffffffffffffffffffffffffffffffff19161480613fd25750605d60f81b817effffffffffffffffffffffffffffffffffffffffffffffffffffffffffffff1916145b1561432f576000607d60f81b827effffffffffffffffffffffffffffffffffffffffffffffffffffffffffffff19161461400d576002614010565b60015b905060006001886020015161402591906179bd565b94505b60008510614211578b8581518110614069577f4e487b7100000000000000000000000000000000000000000000000000000000600052603260045260246000fd5b602002602001015193508360400151801561408657508360800151155b156141fe578160048111156140c4577f4e487b7100000000000000000000000000000000000000000000000000000000600052602160045260246000fd5b84600001516004811115614101577f4e487b7100000000000000000000000000000000000000000000000000000000600052602160045260246000fd5b146141205760018c60009c509c509c5050505050505050505050614ec6565b7fffffffffffffffffffffffffffffffffffffffffffffffffffffffffffffffff8860400181815250506001886000015161415b919061754e565b8c8681518110614194577f4e487b7100000000000000000000000000000000000000000000000000000000600052603260045260246000fd5b6020026020010151606001818152505060018c86815181106141df577f4e487b7100000000000000000000000000000000000000000000000000000000600052603260045260246000fd5b6020026020010151608001901515908115158152505060019050614211565b848061420990617afc565b955050614028565b806142305760018c60009c509c509c5050505050505050505050614ec6565b5b60008511156142b7578b8581518110614273577f4e487b7100000000000000000000000000000000000000000000000000000000600052603260045260246000fd5b602002602001015193508360400151801561429057508360800151155b156142a457848860400181815250506142b7565b84806142af90617afc565b955050614231565b6000851415614327578b85815181106142f9577f4e487b7100000000000000000000000000000000000000000000000000000000600052603260045260246000fd5b602002602001015193508360400151801561431657508360800151155b1561432657848860400181815250505b5b505050614e95565b7f2200000000000000000000000000000000000000000000000000000000000000817effffffffffffffffffffffffffffffffffffffffffffffffffffffffffffff1916141561444557614384868b8a61575e565b9450600085146143a557848a60009a509a509a505050505050505050614ec6565b83806143b090617b89565b9450507fffffffffffffffffffffffffffffffffffffffffffffffffffffffffffffffff86604001511461443f578986604001518151811061441b577f4e487b7100000000000000000000000000000000000000000000000000000000600052603260045260246000fd5b602002602001015160a001805180919061443490617bd2565b60ff1660ff16815250505b50614e95565b7f2000000000000000000000000000000000000000000000000000000000000000817effffffffffffffffffffffffffffffffffffffffffffffffffffffffffffff191614806144ba5750601160f81b817effffffffffffffffffffffffffffffffffffffffffffffffffffffffffffff1916145b806144ea5750601260f81b817effffffffffffffffffffffffffffffffffffffffffffffffffffffffffffff1916145b8061451a5750601460f81b817effffffffffffffffffffffffffffffffffffffffffffffffffffffffffffff1916145b156145255750614e95565b7f3a00000000000000000000000000000000000000000000000000000000000000817effffffffffffffffffffffffffffffffffffffffffffffffffffffffffffff1916141561458f576001866020015161458091906179bd565b86604001818152505050614e95565b7f2c00000000000000000000000000000000000000000000000000000000000000817effffffffffffffffffffffffffffffffffffffffffffffffffffffffffffff191614156149ea577fffffffffffffffffffffffffffffffffffffffffffffffffffffffffffffffff8660400151141580156146c6575060026004811115614642577f4e487b7100000000000000000000000000000000000000000000000000000000600052602160045260246000fd5b8a87604001518151811061467f577f4e487b7100000000000000000000000000000000000000000000000000000000600052603260045260246000fd5b60200260200101516000015160048111156146c3577f4e487b7100000000000000000000000000000000000000000000000000000000600052602160045260246000fd5b14155b801561478b575060016004811115614707577f4e487b7100000000000000000000000000000000000000000000000000000000600052602160045260246000fd5b8a876040015181518110614744577f4e487b7100000000000000000000000000000000000000000000000000000000600052603260045260246000fd5b6020026020010151600001516004811115614788577f4e487b7100000000000000000000000000000000000000000000000000000000600052602160045260246000fd5b14155b156149e457600186602001516147a191906179bd565b92505b600083106149e357600260048111156147e6577f4e487b7100000000000000000000000000000000000000000000000000000000600052602160045260246000fd5b8a848151811061481f577f4e487b7100000000000000000000000000000000000000000000000000000000600052603260045260246000fd5b6020026020010151600001516004811115614863577f4e487b7100000000000000000000000000000000000000000000000000000000600052602160045260246000fd5b14806149235750600160048111156148a4577f4e487b7100000000000000000000000000000000000000000000000000000000600052602160045260246000fd5b8a84815181106148dd577f4e487b7100000000000000000000000000000000000000000000000000000000600052603260045260246000fd5b6020026020010151600001516004811115614921577f4e487b7100000000000000000000000000000000000000000000000000000000600052602160045260246000fd5b145b156149d057898381518110614961577f4e487b7100000000000000000000000000000000000000000000000000000000600052603260045260246000fd5b60200260200101516040015180156149bb57508983815181106149ad577f4e487b7100000000000000000000000000000000000000000000000000000000600052603260045260246000fd5b602002602001015160800151155b156149cf57828660400181815250506149e3565b5b82806149db90617afc565b9350506147a4565b5b50614e95565b7f3000000000000000000000000000000000000000000000000000000000000000817effffffffffffffffffffffffffffffffffffffffffffffffffffffffffffff191610158015614a7e57507f3900000000000000000000000000000000000000000000000000000000000000817effffffffffffffffffffffffffffffffffffffffffffffffffffffffffffff191611155b80614aca57507f2d00000000000000000000000000000000000000000000000000000000000000817effffffffffffffffffffffffffffffffffffffffffffffffffffffffffffff1916145b80614b1657507f6600000000000000000000000000000000000000000000000000000000000000817effffffffffffffffffffffffffffffffffffffffffffffffffffffffffffff1916145b80614b6257507f7400000000000000000000000000000000000000000000000000000000000000817effffffffffffffffffffffffffffffffffffffffffffffffffffffffffffff1916145b80614bae57507f6e00000000000000000000000000000000000000000000000000000000000000817effffffffffffffffffffffffffffffffffffffffffffffffffffffffffffff1916145b15614e1a577fffffffffffffffffffffffffffffffffffffffffffffffffffffffffffffffff866040015114614d4e5789866040015181518110614c1b577f4e487b7100000000000000000000000000000000000000000000000000000000600052603260045260246000fd5b6020026020010151915060016004811115614c5f577f4e487b7100000000000000000000000000000000000000000000000000000000600052602160045260246000fd5b82600001516004811115614c9c577f4e487b7100000000000000000000000000000000000000000000000000000000600052602160045260246000fd5b1480614d30575060036004811115614cdd577f4e487b7100000000000000000000000000000000000000000000000000000000600052602160045260246000fd5b82600001516004811115614d1a577f4e487b7100000000000000000000000000000000000000000000000000000000600052602160045260246000fd5b148015614d2f575060008260a0015160ff1614155b5b15614d4d5760018a60009a509a509a505050505050505050614ec6565b5b614d59868b8a615dae565b945060008514614d7a57848a60009a509a509a505050505050505050614ec6565b8380614d8590617b89565b9450507fffffffffffffffffffffffffffffffffffffffffffffffffffffffffffffffff866040015114614e145789866040015181518110614df0577f4e487b7100000000000000000000000000000000000000000000000000000000600052603260045260246000fd5b602002602001015160a0018051809190614e0990617bd2565b60ff1660ff16815250505b50614e95565b602060f81b817effffffffffffffffffffffffffffffffffffffffffffffffffffffffffffff191610158015614e765750607e60f81b817effffffffffffffffffffffffffffffffffffffffffffffffffffffffffffff191611155b15614e935760018a60009a509a509a505050505050505050614ec6565b505b846000018051809190614ea790617b89565b81525050613d08565b6000898660200151995099509950505050505050505b9250925092565b6060600084905060008484614ee291906179bd565b67ffffffffffffffff811115614f21577f4e487b7100000000000000000000000000000000000000000000000000000000600052604160045260246000fd5b6040519080825280601f01601f191660200182016040528015614f535781602001600182028036833780820191505090505b50905060008590505b8481101561502e57828181518110614f9d577f4e487b7100000000000000000000000000000000000000000000000000000000600052603260045260246000fd5b602001015160f81c60f81b828783614fb591906179bd565b81518110614fec577f4e487b7100000000000000000000000000000000000000000000000000000000600052603260045260246000fd5b60200101907effffffffffffffffffffffffffffffffffffffffffffffffffffffffffffff1916908160001a905350808061502690617b89565b915050614f5c565b5080925050509392505050565b6000808390506000839050600082519050808251101561505a57815190505b60005b818110156152555782818151811061509e577f4e487b7100000000000000000000000000000000000000000000000000000000600052603260045260246000fd5b602001015160f81c60f81b7effffffffffffffffffffffffffffffffffffffffffffffffffffffffffffff1916848281518110615104577f4e487b7100000000000000000000000000000000000000000000000000000000600052603260045260246000fd5b602001015160f81c60f81b7effffffffffffffffffffffffffffffffffffffffffffffffffffffffffffff19161015615163577fffffffffffffffffffffffffffffffffffffffffffffffffffffffffffffffff9450505050506152a9565b82818151811061519c577f4e487b7100000000000000000000000000000000000000000000000000000000600052603260045260246000fd5b602001015160f81c60f81b7effffffffffffffffffffffffffffffffffffffffffffffffffffffffffffff1916848281518110615202577f4e487b7100000000000000000000000000000000000000000000000000000000600052603260045260246000fd5b602001015160f81c60f81b7effffffffffffffffffffffffffffffffffffffffffffffffffffffffffffff191611156152425760019450505050506152a9565b808061524d90617b89565b91505061505d565b5081518351101561528b577fffffffffffffffffffffffffffffffffffffffffffffffffffffffffffffffff93505050506152a9565b8151835111156152a157600193505050506152a9565b600093505050505b92915050565b60006152bc8260006160db565b9050919050565b600080600080600085600888901b60108a901b171790506000603f601283901c1690506000603f600c84901c1690506000603f600685901c1690506000603f85169050604051806060016040528060408152602001618192604091398481518110615357577f4e487b7100000000000000000000000000000000000000000000000000000000600052603260045260246000fd5b602001015160f81c60f81b98506040518060600160405280604081526020016181926040913983815181106153b5577f4e487b7100000000000000000000000000000000000000000000000000000000600052603260045260246000fd5b602001015160f81c60f81b9750604051806060016040528060408152602001618192604091398281518110615413577f4e487b7100000000000000000000000000000000000000000000000000000000600052603260045260246000fd5b602001015160f81c60f81b9650604051806060016040528060408152602001618192604091398181518110615471577f4e487b7100000000000000000000000000000000000000000000000000000000600052603260045260246000fd5b602001015160f81c60f81b9550505050505093509350935093565b5b602081106154cb57815183526020836154a6919061754e565b92506020826154b5919061754e565b91506020816154c491906179bd565b905061548d565b600060018260206154dc91906179bd565b6101006154e9919061765f565b6154f391906179bd565b90508019835116818551168181178652505050505050565b60008151905060006a636f6e736f6c652e6c6f679050602083016000808483855afa5050505050565b61553c616532565b60606000604051806060016040528060008152602001600081526020017fffffffffffffffffffffffffffffffffffffffffffffffffffffffffffffffff815250905060008467ffffffffffffffff8111156155c1577f4e487b7100000000000000000000000000000000000000000000000000000000600052604160045260246000fd5b6040519080825280602002602001820160405280156155fa57816020015b6155e7616553565b8152602001906001900390816155df5790505b5090508181935093505050915091565b6000615614616553565b8251846020015110615679576000836001855161563191906179bd565b81518110615668577f4e487b7100000000000000000000000000000000000000000000000000000000600052603260045260246000fd5b602002602001015191509150615757565b60006040518060c00160405280600060048111156156c0577f4e487b7100000000000000000000000000000000000000000000000000000000600052602160045260246000fd5b81526020016000815260200160001515815260200160008152602001600015158152602001600060ff168152509050808486602001518151811061572d577f4e487b7100000000000000000000000000000000000000000000000000000000600052603260045260246000fd5b602002602001018190525084602001805180919061574a90617b89565b8152505060018192509250505b9250929050565b600080846000015190506000615772616553565b86600001805180919061578490617b89565b815250505b845187600001511015615d95576000858860000151815181106157d5577f4e487b7100000000000000000000000000000000000000000000000000000000600052603260045260246000fd5b602001015160f81c60f81b90507f2200000000000000000000000000000000000000000000000000000000000000817effffffffffffffffffffffffffffffffffffffffffffffffffffffffffffff1916141561588457615836888861560a565b80935081945050508261585a57838860000181815250506003945050505050615da7565b61587782600360018761586d919061754e565b8b600001516163a4565b6000945050505050615da7565b605c8160f81c60ff161480156158aa57508551600189600001516158a8919061754e565b105b15615d78578760000180518091906158c190617b89565b815250507f220000000000000000000000000000000000000000000000000000000000000086896000015181518110615923577f4e487b7100000000000000000000000000000000000000000000000000000000600052603260045260246000fd5b602001015160f81c60f81b7effffffffffffffffffffffffffffffffffffffffffffffffffffffffffffff191614806159e457507f2f00000000000000000000000000000000000000000000000000000000000000868960000151815181106159b5577f4e487b7100000000000000000000000000000000000000000000000000000000600052603260045260246000fd5b602001015160f81c60f81b7effffffffffffffffffffffffffffffffffffffffffffffffffffffffffffff1916145b80615a7757507f5c0000000000000000000000000000000000000000000000000000000000000086896000015181518110615a48577f4e487b7100000000000000000000000000000000000000000000000000000000600052603260045260246000fd5b602001015160f81c60f81b7effffffffffffffffffffffffffffffffffffffffffffffffffffffffffffff1916145b80615b0a57507f660000000000000000000000000000000000000000000000000000000000000086896000015181518110615adb577f4e487b7100000000000000000000000000000000000000000000000000000000600052603260045260246000fd5b602001015160f81c60f81b7effffffffffffffffffffffffffffffffffffffffffffffffffffffffffffff1916145b80615b9d57507f720000000000000000000000000000000000000000000000000000000000000086896000015181518110615b6e577f4e487b7100000000000000000000000000000000000000000000000000000000600052603260045260246000fd5b602001015160f81c60f81b7effffffffffffffffffffffffffffffffffffffffffffffffffffffffffffff1916145b80615c3057507f6e0000000000000000000000000000000000000000000000000000000000000086896000015181518110615c01577f4e487b7100000000000000000000000000000000000000000000000000000000600052603260045260246000fd5b602001015160f81c60f81b7effffffffffffffffffffffffffffffffffffffffffffffffffffffffffffff1916145b80615cc357507f620000000000000000000000000000000000000000000000000000000000000086896000015181518110615c94577f4e487b7100000000000000000000000000000000000000000000000000000000600052603260045260246000fd5b602001015160f81c60f81b7effffffffffffffffffffffffffffffffffffffffffffffffffffffffffffff1916145b80615d5657507f740000000000000000000000000000000000000000000000000000000000000086896000015181518110615d27577f4e487b7100000000000000000000000000000000000000000000000000000000600052603260045260246000fd5b602001015160f81c60f81b7effffffffffffffffffffffffffffffffffffffffffffffffffffffffffffff1916145b15615d615750615d7a565b838860000181815250506001945050505050615da7565b505b866000018051809190615d8c90617b89565b81525050615789565b82876000018181525050600293505050505b9392505050565b60008060009050600085600001519050600080615dc9616553565b5b8651896000015110156160575786896000015181518110615e14577f4e487b7100000000000000000000000000000000000000000000000000000000600052603260045260246000fd5b602001015160f81c60f81b92507f2000000000000000000000000000000000000000000000000000000000000000837effffffffffffffffffffffffffffffffffffffffffffffffffffffffffffff19161480615eb257507f0900000000000000000000000000000000000000000000000000000000000000837effffffffffffffffffffffffffffffffffffffffffffffffffffffffffffff1916145b80615efe57507f0a00000000000000000000000000000000000000000000000000000000000000837effffffffffffffffffffffffffffffffffffffffffffffffffffffffffffff1916145b80615f4a57507f0d00000000000000000000000000000000000000000000000000000000000000837effffffffffffffffffffffffffffffffffffffffffffffffffffffffffffff1916145b80615f9657507f2c00000000000000000000000000000000000000000000000000000000000000837effffffffffffffffffffffffffffffffffffffffffffffffffffffffffffff1916145b80615fc65750607d60f81b837effffffffffffffffffffffffffffffffffffffffffffffffffffffffffffff1916145b80615ff65750605d60f81b837effffffffffffffffffffffffffffffffffffffffffffffffffffffffffffff1916145b156160045760019450616057565b60208360f81c60ff16108061601f5750607f8360f81c60ff16115b1561603c57838960000181815250506001955050505050506160d4565b88600001805180919061604e90617b89565b81525050615dca565b8461607457838960000181815250506002955050505050506160d4565b61607e898961560a565b8092508193505050816160a357838960000181815250506003955050505050506160d4565b6160b4816004868c600001516163a4565b8860000180518091906160c690617afc565b815250506000955050505050505b9392505050565b6000808390506000806000805b845181101561633d5760008114801561618557507f2d00000000000000000000000000000000000000000000000000000000000000858281518110616156577f4e487b7100000000000000000000000000000000000000000000000000000000600052603260045260246000fd5b602001015160f81c60f81b7effffffffffffffffffffffffffffffffffffffffffffffffffffffffffffff1916145b1561618f57600191505b60308582815181106161ca577f4e487b7100000000000000000000000000000000000000000000000000000000600052603260045260246000fd5b602001015160f81c60f81b60f81c60ff16101580156162335750603985828151811061621f577f4e487b7100000000000000000000000000000000000000000000000000000000600052603260045260246000fd5b602001015160f81c60f81b60f81c60ff1611155b156162d257821561625b57600087141561624c5761633d565b868061625790617afc565b9750505b600a84616268919061777d565b935060308582815181106162a5577f4e487b7100000000000000000000000000000000000000000000000000000000600052603260045260246000fd5b602001015160f81c60f81b60f81c60ff166162c09190617929565b846162cb91906174ba565b935061632a565b602e85828151811061630d577f4e487b7100000000000000000000000000000000000000000000000000000000600052603260045260246000fd5b602001015160f81c60f81b60f81c60ff16141561632957600192505b5b808061633590617b89565b9150506160e8565b5060008611156163625785600a616354919061765f565b8361635f919061777d565b92505b8015616397577fffffffffffffffffffffffffffffffffffffffffffffffffffffffffffffffff83616394919061777d565b92505b8294505050505092915050565b82846000019060048111156163e2577f4e487b7100000000000000000000000000000000000000000000000000000000600052602160045260246000fd5b9081600481111561641c577f4e487b7100000000000000000000000000000000000000000000000000000000600052602160045260246000fd5b8152505081846020018181525050600184604001901515908115158152505080846060018181525050600184608001901515908115158152505060008460a0019060ff16908160ff168152505050505050565b604051806040016040528060008152602001600081525090565b82805461649590617b26565b90600052602060002090601f0160209004810192826164b757600085556164fe565b82601f106164d057805160ff19168380011785556164fe565b828001600101855582156164fe579182015b828111156164fd5782518255916020019190600101906164e2565b5b50905061650b91906165c8565b5090565b604051806101200160405280600990602082028036833780820191505090505090565b60405180606001604052806000815260200160008152602001600081525090565b6040518060c0016040528060006004811115616598577f4e487b7100000000000000000000000000000000000000000000000000000000600052602160045260246000fd5b81526020016000815260200160001515815260200160008152602001600015158152602001600060ff1681525090565b5b808211156165e15760008160009055506001016165c9565b5090565b60006165f86165f38461740a565b6173e5565b90508281526020810184848401111561661057600080fd5b61661b848285617aba565b509392505050565b60006166366166318461743b565b6173e5565b90508281526020810184848401111561664e57600080fd5b616659848285617aba565b509392505050565b60008135905061667081618007565b92915050565b6000813590506166858161801e565b92915050565b60008151905061669a8161801e565b92915050565b6000815190506166af81618035565b92915050565b6000813590506166c48161804c565b92915050565b600082601f8301126166db57600080fd5b81356166eb8482602086016165e5565b91505092915050565b600082601f83011261670557600080fd5b8135616715848260208601616623565b91505092915050565b60008135905061672d81618063565b92915050565b6000813590506167428161807a565b92915050565b60006020828403121561675a57600080fd5b600061676884828501616661565b91505092915050565b6000806040838503121561678457600080fd5b600061679285828601616661565b92505060206167a385828601616661565b9150509250929050565b6000806000606084860312156167c257600080fd5b60006167d086828701616661565b93505060206167e186828701616661565b92505060406167f28682870161671e565b9150509250925092565b6000806000806080858703121561681257600080fd5b600061682087828801616661565b945050602061683187828801616661565b93505060406168428782880161671e565b925050606085013567ffffffffffffffff81111561685f57600080fd5b61686b878288016166ca565b91505092959194509250565b6000806040838503121561688a57600080fd5b600061689885828601616661565b92505060206168a985828601616676565b9150509250929050565b600080604083850312156168c657600080fd5b60006168d485828601616661565b92505060206168e58582860161671e565b9150509250929050565b60006020828403121561690157600080fd5b600061690f8482850161668b565b91505092915050565b60006020828403121561692a57600080fd5b6000616938848285016166a0565b91505092915050565b60006020828403121561695357600080fd5b6000616961848285016166b5565b91505092915050565b60006020828403121561697c57600080fd5b600082013567ffffffffffffffff81111561699657600080fd5b6169a2848285016166ca565b91505092915050565b600080604083850312156169be57600080fd5b600083013567ffffffffffffffff8111156169d857600080fd5b6169e4858286016166ca565b925050602083013567ffffffffffffffff811115616a0157600080fd5b616a0d858286016166ca565b9150509250929050565b600060208284031215616a2957600080fd5b600082013567ffffffffffffffff811115616a4357600080fd5b616a4f848285016166f4565b91505092915050565b600080600060608486031215616a6d57600080fd5b600084013567ffffffffffffffff811115616a8757600080fd5b616a93868287016166f4565b935050602084013567ffffffffffffffff811115616ab057600080fd5b616abc868287016166f4565b925050604084013567ffffffffffffffff811115616ad957600080fd5b616ae5868287016166ca565b9150509250925092565b600060208284031215616b0157600080fd5b6000616b0f8482850161671e565b91505092915050565b600060208284031215616b2a57600080fd5b6000616b3884828501616733565b91505092915050565b616b4a81617a25565b82525050565b616b5981617a37565b82525050565b616b70616b6b82617a43565b617bfc565b82525050565b6000616b818261746c565b616b8b8185617482565b9350616b9b818560208601617ac9565b616ba481617d05565b840191505092915050565b6000616bba8261746c565b616bc48185617493565b9350616bd4818560208601617ac9565b80840191505092915050565b6000616beb82617477565b616bf5818561749e565b9350616c05818560208601617ac9565b616c0e81617d05565b840191505092915050565b6000616c2660138361749e565b9150616c3182617d30565b602082019050919050565b6000616c4960138361749e565b9150616c5482617d59565b602082019050919050565b6000616c6c60178361749e565b9150616c7782617d82565b602082019050919050565b6000616c8f6020836174af565b9150616c9a82617dab565b602082019050919050565b6000616cb260108361749e565b9150616cbd82617db5565b602082019050919050565b6000616cd560128361749e565b9150616ce082617dde565b602082019050919050565b6000616cf86001836174af565b9150616d0382617e07565b600182019050919050565b6000616d1b60078361749e565b9150616d2682617e30565b602082019050919050565b6000616d3e600e8361749e565b9150616d4982617e59565b602082019050919050565b6000616d6160138361749e565b9150616d6c82617e82565b602082019050919050565b6000616d846020836174af565b9150616d8f82617eab565b602082019050919050565b6000616da76020836174af565b9150616db282617eb5565b602082019050919050565b6000616dca60118361749e565b9150616dd582617ebf565b602082019050919050565b6000616ded60128361749e565b9150616df882617ee8565b602082019050919050565b6000616e10600d8361749e565b9150616e1b82617f11565b602082019050919050565b6000616e33600b8361749e565b9150616e3e82617f3a565b602082019050919050565b6000616e56600f8361749e565b9150616e6182617f63565b602082019050919050565b6000616e79600b8361749e565b9150616e8482617f8c565b602082019050919050565b6000616e9c60128361749e565b9150616ea782617fb5565b602082019050919050565b6000616ebf6003836174af565b9150616eca82617fde565b600382019050919050565b616ede81617aa3565b82525050565b616eed81617aad565b82525050565b616f04616eff82617aad565b617c06565b82525050565b6000616f16828c616b5f565b602082019150616f26828b616b5f565b602082019150616f36828a616b5f565b602082019150616f468289616b5f565b602082019150616f568288616b5f565b602082019150616f668287616b5f565b602082019150616f768286616b5f565b602082019150616f868285616b5f565b602082019150616f968284616b5f565b6020820191508190509a9950505050505050505050565b6000616fb98285616b5f565b602082019150616fc882616ceb565b9150616fd48284616baf565b91508190509392505050565b6000616fec8286616b5f565b602082019150616ffc8285616ef3565b60018201915061700c8284616baf565b9150819050949350505050565b60006170258284616baf565b915081905092915050565b600061703c8285616baf565b91506170488284616baf565b91508190509392505050565b60006170608287616baf565b915061706c8286616baf565b91506170788285616baf565b91506170848284616baf565b915081905095945050505050565b600061709e8286616baf565b91506170aa8285616baf565b91506170b582616eb2565b91506170c18284616baf565b9150819050949350505050565b60006170d982616c82565b91506170e482616d9a565b91506170ef82616c82565b91506170fb8285616baf565b915061710682616d77565b91506171128284616baf565b91508190509392505050565b60006020820190506171336000830184616b41565b92915050565b600060208201905061714e6000830184616b50565b92915050565b6000602082019050818103600083015261716e8184616b76565b905092915050565b600060408201905081810360008301526171908185616b76565b905081810360208301526171a48184616b76565b90509392505050565b600060208201905081810360008301526171c78184616be0565b905092915050565b600060208201905081810360008301526171e881616c19565b9050919050565b6000602082019050818103600083015261720881616c3c565b9050919050565b6000602082019050818103600083015261722881616c5f565b9050919050565b6000602082019050818103600083015261724881616ca5565b9050919050565b6000602082019050818103600083015261726881616cc8565b9050919050565b6000602082019050818103600083015261728881616d0e565b9050919050565b600060208201905081810360008301526172a881616d31565b9050919050565b600060208201905081810360008301526172c881616d54565b9050919050565b600060208201905081810360008301526172e881616dbd565b9050919050565b6000602082019050818103600083015261730881616de0565b9050919050565b6000602082019050818103600083015261732881616e03565b9050919050565b6000602082019050818103600083015261734881616e26565b9050919050565b6000602082019050818103600083015261736881616e49565b9050919050565b6000602082019050818103600083015261738881616e6c565b9050919050565b600060208201905081810360008301526173a881616e8f565b9050919050565b60006020820190506173c46000830184616ed5565b92915050565b60006020820190506173df6000830184616ee4565b92915050565b60006173ef617400565b90506173fb8282617b58565b919050565b6000604051905090565b600067ffffffffffffffff82111561742557617424617cd6565b5b61742e82617d05565b9050602081019050919050565b600067ffffffffffffffff82111561745657617455617cd6565b5b61745f82617d05565b9050602081019050919050565b600081519050919050565b600081519050919050565b600082825260208201905092915050565b600081905092915050565b600082825260208201905092915050565b600081905092915050565b60006174c582617a79565b91506174d083617a79565b9250817f7fffffffffffffffffffffffffffffffffffffffffffffffffffffffffffffff0383136000831215161561750b5761750a617c49565b5b817f800000000000000000000000000000000000000000000000000000000000000003831260008312161561754357617542617c49565b5b828201905092915050565b600061755982617aa3565b915061756483617aa3565b9250827fffffffffffffffffffffffffffffffffffffffffffffffffffffffffffffffff0382111561759957617598617c49565b5b828201905092915050565b60006175af82617aad565b91506175ba83617aad565b92508260ff038211156175d0576175cf617c49565b5b828201905092915050565b60006175e682617aa3565b91506175f183617aa3565b92508261760157617600617c78565b5b828204905092915050565b6000808291508390505b60018511156176565780860481111561763257617631617c49565b5b60018516156176415780820291505b808102905061764f85617d23565b9450617616565b94509492505050565b600061766a82617aa3565b915061767583617aa3565b92506176a27fffffffffffffffffffffffffffffffffffffffffffffffffffffffffffffffff84846176aa565b905092915050565b6000826176ba5760019050617776565b816176c85760009050617776565b81600181146176de57600281146176e857617717565b6001915050617776565b60ff8411156176fa576176f9617c49565b5b8360020a91508482111561771157617710617c49565b5b50617776565b5060208310610133831016604e8410600b841016171561774c5782820a90508381111561774757617746617c49565b5b617776565b617759848484600161760c565b925090508184048111156177705761776f617c49565b5b81810290505b9392505050565b600061778882617a79565b915061779383617a79565b9250827f7fffffffffffffffffffffffffffffffffffffffffffffffffffffffffffffff04821160008413600084131616156177d2576177d1617c49565b5b817f8000000000000000000000000000000000000000000000000000000000000000058312600084126000841316161561780f5761780e617c49565b5b827f8000000000000000000000000000000000000000000000000000000000000000058212600084136000841216161561784c5761784b617c49565b5b827f7fffffffffffffffffffffffffffffffffffffffffffffffffffffffffffffff058212600084126000841216161561788957617888617c49565b5b828202905092915050565b600061789f82617aa3565b91506178aa83617aa3565b9250817fffffffffffffffffffffffffffffffffffffffffffffffffffffffffffffffff04831182151516156178e3576178e2617c49565b5b828202905092915050565b60006178f982617aad565b915061790483617aad565b92508160ff048311821515161561791e5761791d617c49565b5b828202905092915050565b600061793482617a79565b915061793f83617a79565b9250827f80000000000000000000000000000000000000000000000000000000000000000182126000841215161561797a57617979617c49565b5b827f7fffffffffffffffffffffffffffffffffffffffffffffffffffffffffffffff0182136000841216156179b2576179b1617c49565b5b828203905092915050565b60006179c882617aa3565b91506179d383617aa3565b9250828210156179e6576179e5617c49565b5b828203905092915050565b60006179fc82617aad565b9150617a0783617aad565b925082821015617a1a57617a19617c49565b5b828203905092915050565b6000617a3082617a83565b9050919050565b60008115159050919050565b6000819050919050565b60007fffffffff0000000000000000000000000000000000000000000000000000000082169050919050565b6000819050919050565b600073ffffffffffffffffffffffffffffffffffffffff82169050919050565b6000819050919050565b600060ff82169050919050565b82818337600083830152505050565b60005b83811015617ae7578082015181840152602081019050617acc565b83811115617af6576000848401525b50505050565b6000617b0782617aa3565b91506000821415617b1b57617b1a617c49565b5b600182039050919050565b60006002820490506001821680617b3e57607f821691505b60208210811415617b5257617b51617ca7565b5b50919050565b617b6182617d05565b810181811067ffffffffffffffff82111715617b8057617b7f617cd6565b5b80604052505050565b6000617b9482617aa3565b91507fffffffffffffffffffffffffffffffffffffffffffffffffffffffffffffffff821415617bc757617bc6617c49565b5b600182019050919050565b6000617bdd82617aad565b915060ff821415617bf157617bf0617c49565b5b600182019050919050565b6000819050919050565b6000617c1182617d16565b9050919050565b6000617c2382617aa3565b9150617c2e83617aa3565b925082617c3e57617c3d617c78565b5b828206905092915050565b7f4e487b7100000000000000000000000000000000000000000000000000000000600052601160045260246000fd5b7f4e487b7100000000000000000000000000000000000000000000000000000000600052601260045260246000fd5b7f4e487b7100000000000000000000000000000000000000000000000000000000600052602260045260246000fd5b7f4e487b7100000000000000000000000000000000000000000000000000000000600052604160045260246000fd5b6000601f19601f8301169050919050565b60008160f81b9050919050565b60008160011c9050919050565b7f4d617020753120746f204732206661696c656400000000000000000000000000600082015250565b7f4e6f74206120746f6b656e5552492063616c6c00000000000000000000000000600082015250565b7f546f6b656e2061646472657373206e6f74206d61746368000000000000000000600082015250565b6040600082015250565b7f4269674d6f64457870206661696c656400000000000000000000000000000000600082015250565b7f546f6b656e204964206e6f74204d617463680000000000000000000000000000600082015250565b7f0100000000000000000000000000000000000000000000000000000000000000600082015250565b7f6578706972656400000000000000000000000000000000000000000000000000600082015250565b7f50616972696e67206661696c6564000000000000000000000000000000000000600082015250565b7f4d617020753020746f204732206661696c656400000000000000000000000000600082015250565b6001600082015250565b6020600082015250565b7f4a534f4e207061727365206661696c6564000000000000000000000000000000600082015250565b7f4e6f742061206f776e65724f662063616c6c0000000000000000000000000000600082015250565b7f566572696679206661696c656400000000000000000000000000000000000000600082015250565b7f4e6f7420737570706f7274000000000000000000000000000000000000000000600082015250565b7f6e6f7420657468206d61696e6e65740000000000000000000000000000000000600082015250565b7f496e7075742077726f6e67000000000000000000000000000000000000000000600082015250565b7f4164642075702068617368206661696c65640000000000000000000000000000600082015250565b7f0100000000000000000000000000000000000000000000000000000000000000600082015250565b61801081617a25565b811461801b57600080fd5b50565b61802781617a37565b811461803257600080fd5b50565b61803e81617a43565b811461804957600080fd5b50565b61805581617a4d565b811461806057600080fd5b50565b61806c81617aa3565b811461807757600080fd5b50565b61808381617aad565b811461808e57600080fd5b5056fe0000000000000000000000000000000017f1d3a73197d7942695638c4fa9ac0fc3688c4f9774b905a14e3a3f171bac586c55e83ff97a1aeffb3af00adb22c6bb0000000000000000000000000000000008b3f481e3aaa0f1a09e30ed741d8ae4fcf5e095d5d00af600db18cb2c04b3edd03cc744a2888ae40caa232946c5e7e1000000000000000000000000000000001971e835a1fe1a4d78e381eebbe0ddc84fde5119169db816900de796d10187f3c53d65c1202ac083d099a517f34a9b6200000000000000000000000000000000163b82c73664184d017ac0417de366616cf9c9e4dcf511f95ad4785a0d4824293232c103bf59953af51dfc82e84b7a344142434445464748494a4b4c4d4e4f505152535455565758595a6162636465666768696a6b6c6d6e6f707172737475767778797a303132333435363738392d5f000000000000000000000000000000001a0111ea397fe69a4b1ba7b6434bacd764774b84f38512bf6730d2a0f6b0f6241eabfffeb153ffffb9feffffffffaaab424c535f5349475f424c53313233383147325f584d443a5348412d3235365f535357555f524f5f4e554c5f2b00000000000000000000000000000000000000000000000000000000000000000000000000000000000000000000000000000000000000000000000000000000000000000000000000000000000000001971e835a1fe1a4d78e381eebbe0ddc84fde5119169db816900de796d10187f3c53d65c1202ac083d099a517f34a9b620000000000000000000000000000000003c58f23031bce4d49a0e774c5684675f77d81a0169000c60c5c5a46e968d1faec793efaf1fa6ac4c4e1037d17b43077a2646970667358221220ca0407210ab98f30c1f42384714d6df411f13355e25f24f97eb1b4666b3b75a264736f6c63430008040033",
  "devdoc": {
    "kind": "dev",
    "methods": {
      "approve(address,uint256)": {
        "details": "Gives permission to `to` to transfer `tokenId` token to another account. The approval is cleared when the token is transferred. Only a single account can be approved at a time, so approving the zero address clears previous approvals. Requirements: - The caller must own the token or be an approved operator. - `tokenId` must exist. Emits an {Approval} event."
      },
      "getApproved(uint256)": {
        "details": "Returns the account approved for `tokenId` token. Requirements: - `tokenId` must exist."
      },
      "isApprovedForAll(address,address)": {
        "details": "Returns if the `operator` is allowed to manage all of the assets of `owner`. See {setApprovalForAll}"
      },
      "safeTransferFrom(address,address,uint256)": {
        "details": "Safely transfers `tokenId` token from `from` to `to`, checking first that contract recipients are aware of the ERC721 protocol to prevent tokens from being forever locked. Requirements: - `from` cannot be the zero address. - `to` cannot be the zero address. - `tokenId` token must exist and be owned by `from`. - If the caller is not `from`, it must be have been allowed to move this token by either {approve} or {setApprovalForAll}. - If `to` refers to a smart contract, it must implement {IERC721Receiver-onERC721Received}, which is called upon a safe transfer. Emits a {Transfer} event."
      },
      "supportsInterface(bytes4)": {
        "details": "Returns true if this contract implements the interface defined by `interfaceId`. See the corresponding https://eips.ethereum.org/EIPS/eip-165#how-interfaces-are-identified[EIP section] to learn more about how these ids are created. This function call must use less than 30 000 gas."
      },
      "transferFrom(address,address,uint256)": {
        "details": "Transfers `tokenId` token from `from` to `to`. WARNING: Usage of this method is discouraged, use {safeTransferFrom} whenever possible. Requirements: - `from` cannot be the zero address. - `to` cannot be the zero address. - `tokenId` token must be owned by `from`. - If the caller is not `from`, it must be approved to move this token by either {approve} or {setApprovalForAll}. Emits a {Transfer} event."
      }
    },
    "stateVariables": {
      "balanceOf": {
        "details": "Returns the number of tokens in ``owner``'s account."
      },
      "name": {
        "details": "Returns the token collection name."
      },
      "ownerOf": {
        "details": "Returns the owner of the `tokenId` token. Requirements: - `tokenId` must exist."
      },
      "symbol": {
        "details": "Returns the token collection symbol."
      },
      "tokenURI": {
        "details": "Returns the Uniform Resource Identifier (URI) for `tokenId` token."
      }
    },
    "version": 1
  },
  "userdoc": {
    "kind": "user",
    "methods": {},
    "version": 1
  },
  "storageLayout": {
    "storage": [
      {
        "astId": 2493,
        "contract": "contracts/MirrorNFT.sol:MirrorNFT",
        "label": "name",
        "offset": 0,
        "slot": "0",
        "type": "t_string_storage"
      },
      {
        "astId": 2497,
        "contract": "contracts/MirrorNFT.sol:MirrorNFT",
        "label": "symbol",
        "offset": 0,
        "slot": "1",
        "type": "t_string_storage"
      },
      {
        "astId": 2501,
        "contract": "contracts/MirrorNFT.sol:MirrorNFT",
        "label": "originalAddress",
        "offset": 0,
        "slot": "2",
        "type": "t_mapping(t_uint256,t_address)"
      },
      {
        "astId": 2505,
        "contract": "contracts/MirrorNFT.sol:MirrorNFT",
        "label": "originalTokenId",
        "offset": 0,
        "slot": "3",
        "type": "t_mapping(t_uint256,t_uint256)"
      },
      {
        "astId": 2511,
        "contract": "contracts/MirrorNFT.sol:MirrorNFT",
        "label": "lastCheck",
        "offset": 0,
        "slot": "4",
        "type": "t_mapping(t_address,t_mapping(t_uint256,t_uint256))"
      },
      {
        "astId": 2517,
        "contract": "contracts/MirrorNFT.sol:MirrorNFT",
        "label": "mapId",
        "offset": 0,
        "slot": "5",
        "type": "t_mapping(t_address,t_mapping(t_uint256,t_uint256))"
      },
      {
        "astId": 2522,
        "contract": "contracts/MirrorNFT.sol:MirrorNFT",
        "label": "balanceOf",
        "offset": 0,
        "slot": "6",
        "type": "t_mapping(t_address,t_uint256)"
      },
      {
        "astId": 2527,
        "contract": "contracts/MirrorNFT.sol:MirrorNFT",
        "label": "ownerOf",
        "offset": 0,
        "slot": "7",
        "type": "t_mapping(t_uint256,t_address)"
      },
      {
        "astId": 2532,
        "contract": "contracts/MirrorNFT.sol:MirrorNFT",
        "label": "tokenURI",
        "offset": 0,
        "slot": "8",
        "type": "t_mapping(t_uint256,t_string_storage)"
      },
      {
        "astId": 2535,
        "contract": "contracts/MirrorNFT.sol:MirrorNFT",
        "label": "totalSupply",
        "offset": 0,
        "slot": "9",
        "type": "t_uint256"
      },
      {
        "astId": 2538,
        "contract": "contracts/MirrorNFT.sol:MirrorNFT",
        "label": "litVerify",
        "offset": 0,
        "slot": "10",
        "type": "t_contract(LitVerify)2466"
      }
    ],
    "types": {
      "t_address": {
        "encoding": "inplace",
        "label": "address",
        "numberOfBytes": "20"
      },
      "t_contract(LitVerify)2466": {
        "encoding": "inplace",
        "label": "contract LitVerify",
        "numberOfBytes": "20"
      },
      "t_mapping(t_address,t_mapping(t_uint256,t_uint256))": {
        "encoding": "mapping",
        "key": "t_address",
        "label": "mapping(address => mapping(uint256 => uint256))",
        "numberOfBytes": "32",
        "value": "t_mapping(t_uint256,t_uint256)"
      },
      "t_mapping(t_address,t_uint256)": {
        "encoding": "mapping",
        "key": "t_address",
        "label": "mapping(address => uint256)",
        "numberOfBytes": "32",
        "value": "t_uint256"
      },
      "t_mapping(t_uint256,t_address)": {
        "encoding": "mapping",
        "key": "t_uint256",
        "label": "mapping(uint256 => address)",
        "numberOfBytes": "32",
        "value": "t_address"
      },
      "t_mapping(t_uint256,t_string_storage)": {
        "encoding": "mapping",
        "key": "t_uint256",
        "label": "mapping(uint256 => string)",
        "numberOfBytes": "32",
        "value": "t_string_storage"
      },
      "t_mapping(t_uint256,t_uint256)": {
        "encoding": "mapping",
        "key": "t_uint256",
        "label": "mapping(uint256 => uint256)",
        "numberOfBytes": "32",
        "value": "t_uint256"
      },
      "t_string_storage": {
        "encoding": "bytes",
        "label": "string",
        "numberOfBytes": "32"
      },
      "t_uint256": {
        "encoding": "inplace",
        "label": "uint256",
        "numberOfBytes": "32"
      }
    }
  }
}