{
  "address": "0xcc9C556FbF52e7F1ca8e0E3eB7311ea21d893512",
  "abi": [
    {
      "inputs": [
        {
          "internalType": "contract LitVerify",
          "name": "lit_verify_addr",
          "type": "address"
        }
      ],
      "stateMutability": "nonpayable",
      "type": "constructor"
    },
    {
      "anonymous": false,
      "inputs": [
        {
          "indexed": true,
          "internalType": "address",
          "name": "owner",
          "type": "address"
        },
        {
          "indexed": true,
          "internalType": "address",
          "name": "approved",
          "type": "address"
        },
        {
          "indexed": true,
          "internalType": "uint256",
          "name": "tokenId",
          "type": "uint256"
        }
      ],
      "name": "Approval",
      "type": "event"
    },
    {
      "anonymous": false,
      "inputs": [
        {
          "indexed": true,
          "internalType": "address",
          "name": "owner",
          "type": "address"
        },
        {
          "indexed": true,
          "internalType": "address",
          "name": "operator",
          "type": "address"
        },
        {
          "indexed": false,
          "internalType": "bool",
          "name": "approved",
          "type": "bool"
        }
      ],
      "name": "ApprovalForAll",
      "type": "event"
    },
    {
      "anonymous": false,
      "inputs": [
        {
          "indexed": true,
          "internalType": "address",
          "name": "from",
          "type": "address"
        },
        {
          "indexed": true,
          "internalType": "address",
          "name": "to",
          "type": "address"
        },
        {
          "indexed": true,
          "internalType": "uint256",
          "name": "tokenId",
          "type": "uint256"
        }
      ],
      "name": "Transfer",
      "type": "event"
    },
    {
      "inputs": [
        {
          "internalType": "address",
          "name": "to",
          "type": "address"
        },
        {
          "internalType": "uint256",
          "name": "tokenId",
          "type": "uint256"
        }
      ],
      "name": "approve",
      "outputs": [],
      "stateMutability": "nonpayable",
      "type": "function"
    },
    {
      "inputs": [
        {
          "internalType": "address",
          "name": "",
          "type": "address"
        }
      ],
      "name": "balanceOf",
      "outputs": [
        {
          "internalType": "uint256",
          "name": "",
          "type": "uint256"
        }
      ],
      "stateMutability": "view",
      "type": "function"
    },
    {
      "inputs": [
        {
          "internalType": "string",
          "name": "headerJson",
          "type": "string"
        },
        {
          "internalType": "string",
          "name": "payloadJson",
          "type": "string"
        },
        {
          "internalType": "bytes",
          "name": "signature",
          "type": "bytes"
        }
      ],
      "name": "claim",
      "outputs": [],
      "stateMutability": "nonpayable",
      "type": "function"
    },
    {
      "inputs": [
        {
          "internalType": "uint256",
          "name": "tokenId",
          "type": "uint256"
        }
      ],
      "name": "getApproved",
      "outputs": [
        {
          "internalType": "address",
          "name": "operator",
          "type": "address"
        }
      ],
      "stateMutability": "view",
      "type": "function"
    },
    {
      "inputs": [
        {
          "internalType": "address",
          "name": "owner",
          "type": "address"
        },
        {
          "internalType": "address",
          "name": "operator",
          "type": "address"
        }
      ],
      "name": "isApprovedForAll",
      "outputs": [
        {
          "internalType": "bool",
          "name": "",
          "type": "bool"
        }
      ],
      "stateMutability": "view",
      "type": "function"
    },
    {
      "inputs": [
        {
          "internalType": "address",
          "name": "",
          "type": "address"
        },
        {
          "internalType": "uint256",
          "name": "",
          "type": "uint256"
        }
      ],
      "name": "lastCheck",
      "outputs": [
        {
          "internalType": "uint256",
          "name": "",
          "type": "uint256"
        }
      ],
      "stateMutability": "view",
      "type": "function"
    },
    {
      "inputs": [
        {
          "internalType": "address",
          "name": "",
          "type": "address"
        },
        {
          "internalType": "uint256",
          "name": "",
          "type": "uint256"
        }
      ],
      "name": "mapId",
      "outputs": [
        {
          "internalType": "uint256",
          "name": "",
          "type": "uint256"
        }
      ],
      "stateMutability": "view",
      "type": "function"
    },
    {
      "inputs": [],
      "name": "name",
      "outputs": [
        {
          "internalType": "string",
          "name": "",
          "type": "string"
        }
      ],
      "stateMutability": "view",
      "type": "function"
    },
    {
      "inputs": [
        {
          "internalType": "uint256",
          "name": "",
          "type": "uint256"
        }
      ],
      "name": "originalAddress",
      "outputs": [
        {
          "internalType": "address",
          "name": "",
          "type": "address"
        }
      ],
      "stateMutability": "view",
      "type": "function"
    },
    {
      "inputs": [
        {
          "internalType": "uint256",
          "name": "",
          "type": "uint256"
        }
      ],
      "name": "originalTokenId",
      "outputs": [
        {
          "internalType": "uint256",
          "name": "",
          "type": "uint256"
        }
      ],
      "stateMutability": "view",
      "type": "function"
    },
    {
      "inputs": [
        {
          "internalType": "uint256",
          "name": "",
          "type": "uint256"
        }
      ],
      "name": "ownerOf",
      "outputs": [
        {
          "internalType": "address",
          "name": "",
          "type": "address"
        }
      ],
      "stateMutability": "view",
      "type": "function"
    },
    {
      "inputs": [
        {
          "internalType": "address",
          "name": "from",
          "type": "address"
        },
        {
          "internalType": "address",
          "name": "to",
          "type": "address"
        },
        {
          "internalType": "uint256",
          "name": "tokenId",
          "type": "uint256"
        }
      ],
      "name": "safeTransferFrom",
      "outputs": [],
      "stateMutability": "nonpayable",
      "type": "function"
    },
    {
      "inputs": [
        {
          "internalType": "address",
          "name": "from",
          "type": "address"
        },
        {
          "internalType": "address",
          "name": "to",
          "type": "address"
        },
        {
          "internalType": "uint256",
          "name": "tokenId",
          "type": "uint256"
        },
        {
          "internalType": "bytes",
          "name": "_data",
          "type": "bytes"
        }
      ],
      "name": "safeTransferFrom",
      "outputs": [],
      "stateMutability": "nonpayable",
      "type": "function"
    },
    {
      "inputs": [
        {
          "internalType": "address",
          "name": "operator",
          "type": "address"
        },
        {
          "internalType": "bool",
          "name": "approved",
          "type": "bool"
        }
      ],
      "name": "setApprovalForAll",
      "outputs": [],
      "stateMutability": "nonpayable",
      "type": "function"
    },
    {
      "inputs": [
        {
          "internalType": "bytes4",
          "name": "interfaceId",
          "type": "bytes4"
        }
      ],
      "name": "supportsInterface",
      "outputs": [
        {
          "internalType": "bool",
          "name": "",
          "type": "bool"
        }
      ],
      "stateMutability": "view",
      "type": "function"
    },
    {
      "inputs": [],
      "name": "symbol",
      "outputs": [
        {
          "internalType": "string",
          "name": "",
          "type": "string"
        }
      ],
      "stateMutability": "view",
      "type": "function"
    },
    {
      "inputs": [
        {
          "internalType": "uint256",
          "name": "",
          "type": "uint256"
        }
      ],
      "name": "tokenURI",
      "outputs": [
        {
          "internalType": "string",
          "name": "",
          "type": "string"
        }
      ],
      "stateMutability": "view",
      "type": "function"
    },
    {
      "inputs": [],
      "name": "totalSupply",
      "outputs": [
        {
          "internalType": "uint256",
          "name": "",
          "type": "uint256"
        }
      ],
      "stateMutability": "view",
      "type": "function"
    },
    {
      "inputs": [
        {
          "internalType": "address",
          "name": "from",
          "type": "address"
        },
        {
          "internalType": "address",
          "name": "to",
          "type": "address"
        },
        {
          "internalType": "uint256",
          "name": "tokenId",
          "type": "uint256"
        }
      ],
      "name": "transferFrom",
      "outputs": [],
      "stateMutability": "nonpayable",
      "type": "function"
    }
  ],
  "transactionHash": "0x497714f48ababb9fcd7fdd40c8ec4db2b9d37db3ff5dce9a38d9cccb4e782702",
  "args": [
    "0x7d08af9a703f897c6cae78b21ae1c634750ccc59"
  ],
  "solcInputHash": "87cafd574fdb3147bf652ae8a3a114d4",
  "bytecode": "0x60806040526040518060400160405280601481526020017f4d6972726f724e4654202d20457468657265756d000000000000000000000000815250600090805190602001906200005192919062000120565b506040518060400160405280600681526020017f6574684e46540000000000000000000000000000000000000000000000000000815250600190805190602001906200009f92919062000120565b506000600955348015620000b257600080fd5b5060405162005b1b38038062005b1b8339818101604052810190620000d89190620001e7565b80600a60006101000a81548173ffffffffffffffffffffffffffffffffffffffff021916908373ffffffffffffffffffffffffffffffffffffffff16021790555050620002da565b8280546200012e906200025b565b90600052602060002090601f0160209004810192826200015257600085556200019e565b82601f106200016d57805160ff19168380011785556200019e565b828001600101855582156200019e579182015b828111156200019d57825182559160200191906001019062000180565b5b509050620001ad9190620001b1565b5090565b5b80821115620001cc576000816000905550600101620001b2565b5090565b600081519050620001e181620002c0565b92915050565b600060208284031215620001fa57600080fd5b60006200020a84828501620001d0565b91505092915050565b600062000220826200023b565b9050919050565b6000620002348262000213565b9050919050565b600073ffffffffffffffffffffffffffffffffffffffff82169050919050565b600060028204905060018216806200027457607f821691505b602082108114156200028b576200028a62000291565b5b50919050565b7f4e487b7100000000000000000000000000000000000000000000000000000000600052602260045260246000fd5b620002cb8162000227565b8114620002d757600080fd5b50565b61583180620002ea6000396000f3fe608060405234801561001057600080fd5b50600436106101215760003560e01c80635e868c7c116100ad578063b88d4fde11610071578063b88d4fde1461032c578063c87b56dd14610348578063e985e9c514610378578063f81a7275146103a8578063fa621ac0146103d857610121565b80635e868c7c146102765780636352211e1461029257806370a08231146102c257806395d89b41146102f2578063a22cb4651461031057610121565b806318160ddd116100f457806318160ddd146101c057806323b872dd146101de57806328d44de2146101fa5780632a18624f1461022a57806342842e0e1461025a57610121565b806301ffc9a71461012657806306fdde0314610156578063081812fc14610174578063095ea7b3146101a4575b600080fd5b610140600480360381019061013b919061481e565b610408565b60405161014d9190614b1f565b60405180910390f35b61015e6104da565b60405161016b9190614b3a565b60405180910390f35b61018e600480360381019061018991906148de565b610568565b60405161019b9190614b04565b60405180910390f35b6101be60048036038101906101b991906147b9565b6105a5565b005b6101c86105e0565b6040516101d59190614ce8565b60405180910390f35b6101f860048036038101906101f391906146b3565b6105e6565b005b610214600480360381019061020f91906147b9565b610621565b6040516102219190614ce8565b60405180910390f35b610244600480360381019061023f91906148de565b610646565b6040516102519190614ce8565b60405180910390f35b610274600480360381019061026f91906146b3565b61065e565b005b610290600480360381019061028b9190614847565b610699565b005b6102ac60048036038101906102a791906148de565b61154e565b6040516102b99190614b04565b60405180910390f35b6102dc60048036038101906102d7919061464e565b611581565b6040516102e99190614ce8565b60405180910390f35b6102fa611599565b6040516103079190614b3a565b60405180910390f35b61032a6004803603810190610325919061477d565b611627565b005b61034660048036038101906103419190614702565b611662565b005b610362600480360381019061035d91906148de565b61169d565b60405161036f9190614b3a565b60405180910390f35b610392600480360381019061038d9190614677565b61173d565b60405161039f9190614b1f565b60405180910390f35b6103c260048036038101906103bd91906148de565b61177a565b6040516103cf9190614b04565b60405180910390f35b6103f260048036038101906103ed91906147b9565b6117ad565b6040516103ff9190614ce8565b60405180910390f35b60007f80ac58cd000000000000000000000000000000000000000000000000000000007bffffffffffffffffffffffffffffffffffffffffffffffffffffffff1916827bffffffffffffffffffffffffffffffffffffffffffffffffffffffff191614806104d357507f5b5e139f000000000000000000000000000000000000000000000000000000007bffffffffffffffffffffffffffffffffffffffffffffffffffffffff1916827bffffffffffffffffffffffffffffffffffffffffffffffffffffffff1916145b9050919050565b600080546104e790615424565b80601f016020809104026020016040519081016040528092919081815260200182805461051390615424565b80156105605780601f1061053557610100808354040283529160200191610560565b820191906000526020600020905b81548152906001019060200180831161054357829003601f168201915b505050505081565b60006040517f08c379a000000000000000000000000000000000000000000000000000000000815260040161059c90614c88565b60405180910390fd5b6040517f08c379a00000000000000000000000000000000000000000000000000000000081526004016105d790614c88565b60405180910390fd5b60095481565b6040517f08c379a000000000000000000000000000000000000000000000000000000000815260040161061890614c88565b60405180910390fd5b6005602052816000526040600020602052806000526040600020600091509150505481565b60036020528060005260406000206000915090505481565b6040517f08c379a000000000000000000000000000000000000000000000000000000000815260040161069090614c88565b60405180910390fd5b600a60009054906101000a900473ffffffffffffffffffffffffffffffffffffffff1673ffffffffffffffffffffffffffffffffffffffff166308a981fe8484846040518463ffffffff1660e01b81526004016106f893929190614b5c565b60206040518083038186803b15801561071057600080fd5b505afa158015610724573d6000803e3d6000fd5b505050506040513d601f19601f8201168201806040525081019061074891906147f5565b610787576040517f08c379a000000000000000000000000000000000000000000000000000000000815260040161077e90614c68565b60405180910390fd5b60008060006107a0601a866117d290919063ffffffff16565b925092509250600083146107e9576040517f08c379a00000000000000000000000000000000000000000000000000000000081526004016107e090614c28565b60405180910390fd5b6019811461082c576040517f08c379a000000000000000000000000000000000000000000000000000000000815260040161082390614cc8565b60405180910390fd5b60006108cd8360048151811061086b577f4e487b7100000000000000000000000000000000000000000000000000000000600052603260045260246000fd5b602002602001015160200151846004815181106108b1577f4e487b7100000000000000000000000000000000000000000000000000000000600052603260045260246000fd5b602002602001015160600151886129d19092919063ffffffff16565b905060006109196040518060400160405280600881526020017f657468657265756d00000000000000000000000000000000000000000000000081525083612b3f90919063ffffffff16565b14610959576040517f08c379a000000000000000000000000000000000000000000000000000000000815260040161095090614ca8565b60405180910390fd5b5060006109fb83600881518110610999577f4e487b7100000000000000000000000000000000000000000000000000000000600052603260045260246000fd5b602002602001015160200151846008815181106109df577f4e487b7100000000000000000000000000000000000000000000000000000000600052603260045260246000fd5b602002602001015160600151886129d19092919063ffffffff16565b905042610a0782612db3565b13610a47576040517f08c379a0000000000000000000000000000000000000000000000000000000008152600401610a3e90614c08565b60405180910390fd5b50600080610aea84600881518110610a88577f4e487b7100000000000000000000000000000000000000000000000000000000600052603260045260246000fd5b60200260200101516020015185600881518110610ace577f4e487b7100000000000000000000000000000000000000000000000000000000600052603260045260246000fd5b602002602001015160600151896129d19092919063ffffffff16565b9050610af581612db3565b915050600080610b9a85600d81518110610b38577f4e487b7100000000000000000000000000000000000000000000000000000000600052603260045260246000fd5b60200260200101516020015186600d81518110610b7e577f4e487b7100000000000000000000000000000000000000000000000000000000600052603260045260246000fd5b6020026020010151606001518a6129d19092919063ffffffff16565b90506000610c3d86601281518110610bdb577f4e487b7100000000000000000000000000000000000000000000000000000000600052603260045260246000fd5b60200260200101516020015187601281518110610c21577f4e487b7100000000000000000000000000000000000000000000000000000000600052603260045260246000fd5b6020026020010151606001518b6129d19092919063ffffffff16565b90506000610c548284612b3f90919063ffffffff16565b14610c94576040517f08c379a0000000000000000000000000000000000000000000000000000000008152600401610c8b90614bc8565b60405180910390fd5b6000610c9f83612dc7565b905060148101519350505050600080610d4d86600f81518110610ceb577f4e487b7100000000000000000000000000000000000000000000000000000000600052603260045260246000fd5b60200260200101516020015187600f81518110610d31577f4e487b7100000000000000000000000000000000000000000000000000000000600052603260045260246000fd5b6020026020010151606001518b6129d19092919063ffffffff16565b9050600080610d5b83612dc7565b905060208101519150602481015193507fc87b56dd00000000000000000000000000000000000000000000000000000000827bffffffffffffffffffffffffffffffffffffffffffffffffffffffff191614610dec576040517f08c379a0000000000000000000000000000000000000000000000000000000008152600401610de390614ba8565b60405180910390fd5b6000610e8d89601481518110610e2b577f4e487b7100000000000000000000000000000000000000000000000000000000600052603260045260246000fd5b6020026020010151602001518a601481518110610e71577f4e487b7100000000000000000000000000000000000000000000000000000000600052603260045260246000fd5b6020026020010151606001518e6129d19092919063ffffffff16565b9050610e9881612dc7565b9150600060208301519350602483015190507f6352211e00000000000000000000000000000000000000000000000000000000847bffffffffffffffffffffffffffffffffffffffffffffffffffffffff191614610f2b576040517f08c379a0000000000000000000000000000000000000000000000000000000008152600401610f2290614c48565b60405180910390fd5b808614610f6d576040517f08c379a0000000000000000000000000000000000000000000000000000000008152600401610f6490614be8565b60405180910390fd5b505050505060606000611021608288601781518110610fb5577f4e487b7100000000000000000000000000000000000000000000000000000000600052603260045260246000fd5b602002602001015160200151610fcb9190614e56565b88601781518110611005577f4e487b7100000000000000000000000000000000000000000000000000000000600052603260045260246000fd5b6020026020010151606001518c6129d19092919063ffffffff16565b905061102c81612dc7565b9150506000806110d18860188151811061106f577f4e487b7100000000000000000000000000000000000000000000000000000000600052603260045260246000fd5b602002602001015160200151896018815181106110b5577f4e487b7100000000000000000000000000000000000000000000000000000000600052603260045260246000fd5b6020026020010151606001518d6129d19092919063ffffffff16565b905060006110de82612dc7565b90506020810151925050506000600560008673ffffffffffffffffffffffffffffffffffffffff1673ffffffffffffffffffffffffffffffffffffffff1681526020019081526020016000206000858152602001908152602001600020549050600081146112df5760006007600083815260200190815260200160002060009054906101000a900473ffffffffffffffffffffffffffffffffffffffff1690506001600660008373ffffffffffffffffffffffffffffffffffffffff1673ffffffffffffffffffffffffffffffffffffffff16815260200190815260200160002060008282546111ce91906152c5565b925050819055506001600660008573ffffffffffffffffffffffffffffffffffffffff1673ffffffffffffffffffffffffffffffffffffffff16815260200190815260200160002060008282546112259190614e56565b92505081905550826007600084815260200190815260200160002060006101000a81548173ffffffffffffffffffffffffffffffffffffffff021916908373ffffffffffffffffffffffffffffffffffffffff160217905550818373ffffffffffffffffffffffffffffffffffffffff168273ffffffffffffffffffffffffffffffffffffffff167fddf252ad1be2c89b69c2b068fc378daa952ba7f163c4a11628f55a4df523b3ef60405160405180910390a4506114c3565b6001600960008282546112f29190614e56565b925050819055506009549050846002600083815260200190815260200160002060006101000a81548173ffffffffffffffffffffffffffffffffffffffff021916908373ffffffffffffffffffffffffffffffffffffffff16021790555083600360008381526020019081526020016000208190555080600560008773ffffffffffffffffffffffffffffffffffffffff1673ffffffffffffffffffffffffffffffffffffffff1681526020019081526020016000206000868152602001908152602001600020819055506001600660008473ffffffffffffffffffffffffffffffffffffffff1673ffffffffffffffffffffffffffffffffffffffff168152602001908152602001600020600082825461140d9190614e56565b92505081905550816007600083815260200190815260200160002060006101000a81548173ffffffffffffffffffffffffffffffffffffffff021916908373ffffffffffffffffffffffffffffffffffffffff160217905550808273ffffffffffffffffffffffffffffffffffffffff16600073ffffffffffffffffffffffffffffffffffffffff167fddf252ad1be2c89b69c2b068fc378daa952ba7f163c4a11628f55a4df523b3ef60405160405180910390a45b85600460008773ffffffffffffffffffffffffffffffffffffffff1673ffffffffffffffffffffffffffffffffffffffff1681526020019081526020016000206000868152602001908152602001600020819055508260086000838152602001908152602001600020908051906020019061153f9291906143dc565b50505050505050505050505050565b60076020528060005260406000206000915054906101000a900473ffffffffffffffffffffffffffffffffffffffff1681565b60066020528060005260406000206000915090505481565b600180546115a690615424565b80601f01602080910402602001604051908101604052809291908181526020018280546115d290615424565b801561161f5780601f106115f45761010080835404028352916020019161161f565b820191906000526020600020905b81548152906001019060200180831161160257829003601f168201915b505050505081565b6040517f08c379a000000000000000000000000000000000000000000000000000000000815260040161165990614c88565b60405180910390fd5b6040517f08c379a000000000000000000000000000000000000000000000000000000000815260040161169490614c88565b60405180910390fd5b600860205280600052604060002060009150905080546116bc90615424565b80601f01602080910402602001604051908101604052809291908181526020018280546116e890615424565b80156117355780601f1061170a57610100808354040283529160200191611735565b820191906000526020600020905b81548152906001019060200180831161171857829003601f168201915b505050505081565b60006040517f08c379a000000000000000000000000000000000000000000000000000000000815260040161177190614c88565b60405180910390fd5b60026020528060005260406000206000915054906101000a900473ffffffffffffffffffffffffffffffffffffffff1681565b6004602052816000526040600020602052806000526040600020600091509150505481565b6000606060008085905060006117e6614462565b6117ef87613136565b809650819250505060008082602001519050600061180b614483565b5b8651856000015110156129b457600087866000015181518110611858577f4e487b7100000000000000000000000000000000000000000000000000000000600052603260045260246000fd5b602001015160f81c60f81b9050607b60f81b817effffffffffffffffffffffffffffffffffffffffffffffffffffffffffffff191614806118be5750605b60f81b817effffffffffffffffffffffffffffffffffffffffffffffffffffffffffffff1916145b15611a7d5783806118ce90615487565b9450506118db868b61320c565b8093508198505050866119005760038a60009a509a509a5050505050505050506129ca565b7fffffffffffffffffffffffffffffffffffffffffffffffffffffffffffffffff86604001511461198c5789866040015181518110611968577f4e487b7100000000000000000000000000000000000000000000000000000000600052603260045260246000fd5b602002602001015160a0018051809190611981906154d0565b60ff1660ff16815250505b607b60f81b817effffffffffffffffffffffffffffffffffffffffffffffffffffffffffffff1916146119c05760026119c3565b60015b82600001906004811115611a00577f4e487b7100000000000000000000000000000000000000000000000000000000600052602160045260246000fd5b90816004811115611a3a577f4e487b7100000000000000000000000000000000000000000000000000000000600052602160045260246000fd5b815250508560000151826020018181525050600182604001901515908115158152505060018660200151611a6e91906152c5565b86604001818152505050612999565b607d60f81b817effffffffffffffffffffffffffffffffffffffffffffffffffffffffffffff19161480611ad65750605d60f81b817effffffffffffffffffffffffffffffffffffffffffffffffffffffffffffff1916145b15611e33576000607d60f81b827effffffffffffffffffffffffffffffffffffffffffffffffffffffffffffff191614611b11576002611b14565b60015b9050600060018860200151611b2991906152c5565b94505b60008510611d15578b8581518110611b6d577f4e487b7100000000000000000000000000000000000000000000000000000000600052603260045260246000fd5b6020026020010151935083604001518015611b8a57508360800151155b15611d0257816004811115611bc8577f4e487b7100000000000000000000000000000000000000000000000000000000600052602160045260246000fd5b84600001516004811115611c05577f4e487b7100000000000000000000000000000000000000000000000000000000600052602160045260246000fd5b14611c245760018c60009c509c509c50505050505050505050506129ca565b7fffffffffffffffffffffffffffffffffffffffffffffffffffffffffffffffff88604001818152505060018860000151611c5f9190614e56565b8c8681518110611c98577f4e487b7100000000000000000000000000000000000000000000000000000000600052603260045260246000fd5b6020026020010151606001818152505060018c8681518110611ce3577f4e487b7100000000000000000000000000000000000000000000000000000000600052603260045260246000fd5b6020026020010151608001901515908115158152505060019050611d15565b8480611d0d906153fa565b955050611b2c565b80611d345760018c60009c509c509c50505050505050505050506129ca565b5b6000851115611dbb578b8581518110611d77577f4e487b7100000000000000000000000000000000000000000000000000000000600052603260045260246000fd5b6020026020010151935083604001518015611d9457508360800151155b15611da85784886040018181525050611dbb565b8480611db3906153fa565b955050611d35565b6000851415611e2b578b8581518110611dfd577f4e487b7100000000000000000000000000000000000000000000000000000000600052603260045260246000fd5b6020026020010151935083604001518015611e1a57508360800151155b15611e2a57848860400181815250505b5b505050612999565b7f2200000000000000000000000000000000000000000000000000000000000000817effffffffffffffffffffffffffffffffffffffffffffffffffffffffffffff19161415611f4957611e88868b8a613360565b945060008514611ea957848a60009a509a509a5050505050505050506129ca565b8380611eb490615487565b9450507fffffffffffffffffffffffffffffffffffffffffffffffffffffffffffffffff866040015114611f435789866040015181518110611f1f577f4e487b7100000000000000000000000000000000000000000000000000000000600052603260045260246000fd5b602002602001015160a0018051809190611f38906154d0565b60ff1660ff16815250505b50612999565b7f2000000000000000000000000000000000000000000000000000000000000000817effffffffffffffffffffffffffffffffffffffffffffffffffffffffffffff19161480611fbe5750601160f81b817effffffffffffffffffffffffffffffffffffffffffffffffffffffffffffff1916145b80611fee5750601260f81b817effffffffffffffffffffffffffffffffffffffffffffffffffffffffffffff1916145b8061201e5750601460f81b817effffffffffffffffffffffffffffffffffffffffffffffffffffffffffffff1916145b156120295750612999565b7f3a00000000000000000000000000000000000000000000000000000000000000817effffffffffffffffffffffffffffffffffffffffffffffffffffffffffffff19161415612093576001866020015161208491906152c5565b86604001818152505050612999565b7f2c00000000000000000000000000000000000000000000000000000000000000817effffffffffffffffffffffffffffffffffffffffffffffffffffffffffffff191614156124ee577fffffffffffffffffffffffffffffffffffffffffffffffffffffffffffffffff8660400151141580156121ca575060026004811115612146577f4e487b7100000000000000000000000000000000000000000000000000000000600052602160045260246000fd5b8a876040015181518110612183577f4e487b7100000000000000000000000000000000000000000000000000000000600052603260045260246000fd5b60200260200101516000015160048111156121c7577f4e487b7100000000000000000000000000000000000000000000000000000000600052602160045260246000fd5b14155b801561228f57506001600481111561220b577f4e487b7100000000000000000000000000000000000000000000000000000000600052602160045260246000fd5b8a876040015181518110612248577f4e487b7100000000000000000000000000000000000000000000000000000000600052603260045260246000fd5b602002602001015160000151600481111561228c577f4e487b7100000000000000000000000000000000000000000000000000000000600052602160045260246000fd5b14155b156124e857600186602001516122a591906152c5565b92505b600083106124e757600260048111156122ea577f4e487b7100000000000000000000000000000000000000000000000000000000600052602160045260246000fd5b8a8481518110612323577f4e487b7100000000000000000000000000000000000000000000000000000000600052603260045260246000fd5b6020026020010151600001516004811115612367577f4e487b7100000000000000000000000000000000000000000000000000000000600052602160045260246000fd5b14806124275750600160048111156123a8577f4e487b7100000000000000000000000000000000000000000000000000000000600052602160045260246000fd5b8a84815181106123e1577f4e487b7100000000000000000000000000000000000000000000000000000000600052603260045260246000fd5b6020026020010151600001516004811115612425577f4e487b7100000000000000000000000000000000000000000000000000000000600052602160045260246000fd5b145b156124d457898381518110612465577f4e487b7100000000000000000000000000000000000000000000000000000000600052603260045260246000fd5b60200260200101516040015180156124bf57508983815181106124b1577f4e487b7100000000000000000000000000000000000000000000000000000000600052603260045260246000fd5b602002602001015160800151155b156124d357828660400181815250506124e7565b5b82806124df906153fa565b9350506122a8565b5b50612999565b7f3000000000000000000000000000000000000000000000000000000000000000817effffffffffffffffffffffffffffffffffffffffffffffffffffffffffffff19161015801561258257507f3900000000000000000000000000000000000000000000000000000000000000817effffffffffffffffffffffffffffffffffffffffffffffffffffffffffffff191611155b806125ce57507f2d00000000000000000000000000000000000000000000000000000000000000817effffffffffffffffffffffffffffffffffffffffffffffffffffffffffffff1916145b8061261a57507f6600000000000000000000000000000000000000000000000000000000000000817effffffffffffffffffffffffffffffffffffffffffffffffffffffffffffff1916145b8061266657507f7400000000000000000000000000000000000000000000000000000000000000817effffffffffffffffffffffffffffffffffffffffffffffffffffffffffffff1916145b806126b257507f6e00000000000000000000000000000000000000000000000000000000000000817effffffffffffffffffffffffffffffffffffffffffffffffffffffffffffff1916145b1561291e577fffffffffffffffffffffffffffffffffffffffffffffffffffffffffffffffff866040015114612852578986604001518151811061271f577f4e487b7100000000000000000000000000000000000000000000000000000000600052603260045260246000fd5b6020026020010151915060016004811115612763577f4e487b7100000000000000000000000000000000000000000000000000000000600052602160045260246000fd5b826000015160048111156127a0577f4e487b7100000000000000000000000000000000000000000000000000000000600052602160045260246000fd5b14806128345750600360048111156127e1577f4e487b7100000000000000000000000000000000000000000000000000000000600052602160045260246000fd5b8260000151600481111561281e577f4e487b7100000000000000000000000000000000000000000000000000000000600052602160045260246000fd5b148015612833575060008260a0015160ff1614155b5b156128515760018a60009a509a509a5050505050505050506129ca565b5b61285d868b8a6139b0565b94506000851461287e57848a60009a509a509a5050505050505050506129ca565b838061288990615487565b9450507fffffffffffffffffffffffffffffffffffffffffffffffffffffffffffffffff86604001511461291857898660400151815181106128f4577f4e487b7100000000000000000000000000000000000000000000000000000000600052603260045260246000fd5b602002602001015160a001805180919061290d906154d0565b60ff1660ff16815250505b50612999565b602060f81b817effffffffffffffffffffffffffffffffffffffffffffffffffffffffffffff19161015801561297a5750607e60f81b817effffffffffffffffffffffffffffffffffffffffffffffffffffffffffffff191611155b156129975760018a60009a509a509a5050505050505050506129ca565b505b8460000180518091906129ab90615487565b8152505061180c565b6000898660200151995099509950505050505050505b9250925092565b60606000849050600084846129e691906152c5565b67ffffffffffffffff811115612a25577f4e487b7100000000000000000000000000000000000000000000000000000000600052604160045260246000fd5b6040519080825280601f01601f191660200182016040528015612a575781602001600182028036833780820191505090505b50905060008590505b84811015612b3257828181518110612aa1577f4e487b7100000000000000000000000000000000000000000000000000000000600052603260045260246000fd5b602001015160f81c60f81b828783612ab991906152c5565b81518110612af0577f4e487b7100000000000000000000000000000000000000000000000000000000600052603260045260246000fd5b60200101907effffffffffffffffffffffffffffffffffffffffffffffffffffffffffffff1916908160001a9053508080612b2a90615487565b915050612a60565b5080925050509392505050565b60008083905060008390506000825190508082511015612b5e57815190505b60005b81811015612d5957828181518110612ba2577f4e487b7100000000000000000000000000000000000000000000000000000000600052603260045260246000fd5b602001015160f81c60f81b7effffffffffffffffffffffffffffffffffffffffffffffffffffffffffffff1916848281518110612c08577f4e487b7100000000000000000000000000000000000000000000000000000000600052603260045260246000fd5b602001015160f81c60f81b7effffffffffffffffffffffffffffffffffffffffffffffffffffffffffffff19161015612c67577fffffffffffffffffffffffffffffffffffffffffffffffffffffffffffffffff945050505050612dad565b828181518110612ca0577f4e487b7100000000000000000000000000000000000000000000000000000000600052603260045260246000fd5b602001015160f81c60f81b7effffffffffffffffffffffffffffffffffffffffffffffffffffffffffffff1916848281518110612d06577f4e487b7100000000000000000000000000000000000000000000000000000000600052603260045260246000fd5b602001015160f81c60f81b7effffffffffffffffffffffffffffffffffffffffffffffffffffffffffffff19161115612d46576001945050505050612dad565b8080612d5190615487565b915050612b61565b50815183511015612d8f577fffffffffffffffffffffffffffffffffffffffffffffffffffffffffffffffff9350505050612dad565b815183511115612da55760019350505050612dad565b600093505050505b92915050565b6000612dc0826000613cdd565b9050919050565b6060600082905060007f300000000000000000000000000000000000000000000000000000000000000082600081518110612e2b577f4e487b7100000000000000000000000000000000000000000000000000000000600052603260045260246000fd5b602001015160f81c60f81b7effffffffffffffffffffffffffffffffffffffffffffffffffffffffffffff1916148015612eea57507f780000000000000000000000000000000000000000000000000000000000000082600181518110612ebb577f4e487b7100000000000000000000000000000000000000000000000000000000600052603260045260246000fd5b602001015160f81c60f81b7effffffffffffffffffffffffffffffffffffffffffffffffffffffffffffff1916145b15612ef457600290505b600060028351612f0491906154fa565b14612f0e57600080fd5b60006002828451612f1f91906152c5565b612f299190614ee3565b67ffffffffffffffff811115612f68577f4e487b7100000000000000000000000000000000000000000000000000000000600052604160045260246000fd5b6040519080825280601f01601f191660200182016040528015612f9a5781602001600182028036833780820191505090505b50905060005b6002838551612faf91906152c5565b612fb99190614ee3565b81101561312a5761303284846001846002612fd4919061519c565b612fde9190614e56565b612fe89190614e56565b8151811061301f577f4e487b7100000000000000000000000000000000000000000000000000000000600052603260045260246000fd5b602001015160f81c60f81b60f81c613fa6565b601061309a8686856002613046919061519c565b6130509190614e56565b81518110613087577f4e487b7100000000000000000000000000000000000000000000000000000000600052603260045260246000fd5b602001015160f81c60f81b60f81c613fa6565b6130a491906151f6565b6130ae9190614eac565b60f81b8282815181106130ea577f4e487b7100000000000000000000000000000000000000000000000000000000600052603260045260246000fd5b60200101907effffffffffffffffffffffffffffffffffffffffffffffffffffffffffffff1916908160001a9053508061312390615487565b9050612fa0565b50809350505050919050565b61313e614462565b60606000604051806060016040528060008152602001600081526020017fffffffffffffffffffffffffffffffffffffffffffffffffffffffffffffffff815250905060008467ffffffffffffffff8111156131c3577f4e487b7100000000000000000000000000000000000000000000000000000000600052604160045260246000fd5b6040519080825280602002602001820160405280156131fc57816020015b6131e9614483565b8152602001906001900390816131e15790505b5090508181935093505050915091565b6000613216614483565b825184602001511061327b576000836001855161323391906152c5565b8151811061326a577f4e487b7100000000000000000000000000000000000000000000000000000000600052603260045260246000fd5b602002602001015191509150613359565b60006040518060c00160405280600060048111156132c2577f4e487b7100000000000000000000000000000000000000000000000000000000600052602160045260246000fd5b81526020016000815260200160001515815260200160008152602001600015158152602001600060ff168152509050808486602001518151811061332f577f4e487b7100000000000000000000000000000000000000000000000000000000600052603260045260246000fd5b602002602001018190525084602001805180919061334c90615487565b8152505060018192509250505b9250929050565b600080846000015190506000613374614483565b86600001805180919061338690615487565b815250505b845187600001511015613997576000858860000151815181106133d7577f4e487b7100000000000000000000000000000000000000000000000000000000600052603260045260246000fd5b602001015160f81c60f81b90507f2200000000000000000000000000000000000000000000000000000000000000817effffffffffffffffffffffffffffffffffffffffffffffffffffffffffffff1916141561348657613438888861320c565b80935081945050508261345c578388600001818152505060039450505050506139a9565b61347982600360018761346f9190614e56565b8b60000151614311565b60009450505050506139a9565b605c8160f81c60ff161480156134ac57508551600189600001516134aa9190614e56565b105b1561397a578760000180518091906134c390615487565b815250507f220000000000000000000000000000000000000000000000000000000000000086896000015181518110613525577f4e487b7100000000000000000000000000000000000000000000000000000000600052603260045260246000fd5b602001015160f81c60f81b7effffffffffffffffffffffffffffffffffffffffffffffffffffffffffffff191614806135e657507f2f00000000000000000000000000000000000000000000000000000000000000868960000151815181106135b7577f4e487b7100000000000000000000000000000000000000000000000000000000600052603260045260246000fd5b602001015160f81c60f81b7effffffffffffffffffffffffffffffffffffffffffffffffffffffffffffff1916145b8061367957507f5c000000000000000000000000000000000000000000000000000000000000008689600001518151811061364a577f4e487b7100000000000000000000000000000000000000000000000000000000600052603260045260246000fd5b602001015160f81c60f81b7effffffffffffffffffffffffffffffffffffffffffffffffffffffffffffff1916145b8061370c57507f6600000000000000000000000000000000000000000000000000000000000000868960000151815181106136dd577f4e487b7100000000000000000000000000000000000000000000000000000000600052603260045260246000fd5b602001015160f81c60f81b7effffffffffffffffffffffffffffffffffffffffffffffffffffffffffffff1916145b8061379f57507f720000000000000000000000000000000000000000000000000000000000000086896000015181518110613770577f4e487b7100000000000000000000000000000000000000000000000000000000600052603260045260246000fd5b602001015160f81c60f81b7effffffffffffffffffffffffffffffffffffffffffffffffffffffffffffff1916145b8061383257507f6e0000000000000000000000000000000000000000000000000000000000000086896000015181518110613803577f4e487b7100000000000000000000000000000000000000000000000000000000600052603260045260246000fd5b602001015160f81c60f81b7effffffffffffffffffffffffffffffffffffffffffffffffffffffffffffff1916145b806138c557507f620000000000000000000000000000000000000000000000000000000000000086896000015181518110613896577f4e487b7100000000000000000000000000000000000000000000000000000000600052603260045260246000fd5b602001015160f81c60f81b7effffffffffffffffffffffffffffffffffffffffffffffffffffffffffffff1916145b8061395857507f740000000000000000000000000000000000000000000000000000000000000086896000015181518110613929577f4e487b7100000000000000000000000000000000000000000000000000000000600052603260045260246000fd5b602001015160f81c60f81b7effffffffffffffffffffffffffffffffffffffffffffffffffffffffffffff1916145b15613963575061397c565b8388600001818152505060019450505050506139a9565b505b86600001805180919061398e90615487565b8152505061338b565b82876000018181525050600293505050505b9392505050565b600080600090506000856000015190506000806139cb614483565b5b865189600001511015613c595786896000015181518110613a16577f4e487b7100000000000000000000000000000000000000000000000000000000600052603260045260246000fd5b602001015160f81c60f81b92507f2000000000000000000000000000000000000000000000000000000000000000837effffffffffffffffffffffffffffffffffffffffffffffffffffffffffffff19161480613ab457507f0900000000000000000000000000000000000000000000000000000000000000837effffffffffffffffffffffffffffffffffffffffffffffffffffffffffffff1916145b80613b0057507f0a00000000000000000000000000000000000000000000000000000000000000837effffffffffffffffffffffffffffffffffffffffffffffffffffffffffffff1916145b80613b4c57507f0d00000000000000000000000000000000000000000000000000000000000000837effffffffffffffffffffffffffffffffffffffffffffffffffffffffffffff1916145b80613b9857507f2c00000000000000000000000000000000000000000000000000000000000000837effffffffffffffffffffffffffffffffffffffffffffffffffffffffffffff1916145b80613bc85750607d60f81b837effffffffffffffffffffffffffffffffffffffffffffffffffffffffffffff1916145b80613bf85750605d60f81b837effffffffffffffffffffffffffffffffffffffffffffffffffffffffffffff1916145b15613c065760019450613c59565b60208360f81c60ff161080613c215750607f8360f81c60ff16115b15613c3e5783896000018181525050600195505050505050613cd6565b886000018051809190613c5090615487565b815250506139cc565b84613c765783896000018181525050600295505050505050613cd6565b613c80898961320c565b809250819350505081613ca55783896000018181525050600395505050505050613cd6565b613cb6816004868c60000151614311565b886000018051809190613cc8906153fa565b815250506000955050505050505b9392505050565b6000808390506000806000805b8451811015613f3f57600081148015613d8757507f2d00000000000000000000000000000000000000000000000000000000000000858281518110613d58577f4e487b7100000000000000000000000000000000000000000000000000000000600052603260045260246000fd5b602001015160f81c60f81b7effffffffffffffffffffffffffffffffffffffffffffffffffffffffffffff1916145b15613d9157600191505b6030858281518110613dcc577f4e487b7100000000000000000000000000000000000000000000000000000000600052603260045260246000fd5b602001015160f81c60f81b60f81c60ff1610158015613e3557506039858281518110613e21577f4e487b7100000000000000000000000000000000000000000000000000000000600052603260045260246000fd5b602001015160f81c60f81b60f81c60ff1611155b15613ed4578215613e5d576000871415613e4e57613f3f565b8680613e59906153fa565b9750505b600a84613e6a9190615085565b93506030858281518110613ea7577f4e487b7100000000000000000000000000000000000000000000000000000000600052603260045260246000fd5b602001015160f81c60f81b60f81c60ff16613ec29190615231565b84613ecd9190614dc2565b9350613f2c565b602e858281518110613f0f577f4e487b7100000000000000000000000000000000000000000000000000000000600052603260045260246000fd5b602001015160f81c60f81b60f81c60ff161415613f2b57600192505b5b8080613f3790615487565b915050613cea565b506000861115613f645785600a613f569190614f67565b83613f619190615085565b92505b8015613f99577fffffffffffffffffffffffffffffffffffffffffffffffffffffffffffffffff83613f969190615085565b92505b8294505050505092915050565b60007f30000000000000000000000000000000000000000000000000000000000000007effffffffffffffffffffffffffffffffffffffffffffffffffffffffffffff19168260f81b7effffffffffffffffffffffffffffffffffffffffffffffffffffffffffffff19161015801561408657507f39000000000000000000000000000000000000000000000000000000000000007effffffffffffffffffffffffffffffffffffffffffffffffffffffffffffff19168260f81b7effffffffffffffffffffffffffffffffffffffffffffffffffffffffffffff191611155b156140c1577f300000000000000000000000000000000000000000000000000000000000000060f81c826140ba91906152f9565b905061430c565b7f61000000000000000000000000000000000000000000000000000000000000007effffffffffffffffffffffffffffffffffffffffffffffffffffffffffffff19168260f81b7effffffffffffffffffffffffffffffffffffffffffffffffffffffffffffff19161015801561419f57507f66000000000000000000000000000000000000000000000000000000000000007effffffffffffffffffffffffffffffffffffffffffffffffffffffffffffff19168260f81b7effffffffffffffffffffffffffffffffffffffffffffffffffffffffffffff191611155b156141e6577f610000000000000000000000000000000000000000000000000000000000000060f81c82600a6141d59190614eac565b6141df91906152f9565b905061430c565b7f41000000000000000000000000000000000000000000000000000000000000007effffffffffffffffffffffffffffffffffffffffffffffffffffffffffffff19168260f81b7effffffffffffffffffffffffffffffffffffffffffffffffffffffffffffff1916101580156142c457507f46000000000000000000000000000000000000000000000000000000000000007effffffffffffffffffffffffffffffffffffffffffffffffffffffffffffff19168260f81b7effffffffffffffffffffffffffffffffffffffffffffffffffffffffffffff191611155b1561430b577f410000000000000000000000000000000000000000000000000000000000000060f81c82600a6142fa9190614eac565b61430491906152f9565b905061430c565b5b919050565b828460000190600481111561434f577f4e487b7100000000000000000000000000000000000000000000000000000000600052602160045260246000fd5b90816004811115614389577f4e487b7100000000000000000000000000000000000000000000000000000000600052602160045260246000fd5b8152505081846020018181525050600184604001901515908115158152505080846060018181525050600184608001901515908115158152505060008460a0019060ff16908160ff168152505050505050565b8280546143e890615424565b90600052602060002090601f01602090048101928261440a5760008555614451565b82601f1061442357805160ff1916838001178555614451565b82800160010185558215614451579182015b82811115614450578251825591602001919060010190614435565b5b50905061445e91906144f8565b5090565b60405180606001604052806000815260200160008152602001600081525090565b6040518060c00160405280600060048111156144c8577f4e487b7100000000000000000000000000000000000000000000000000000000600052602160045260246000fd5b81526020016000815260200160001515815260200160008152602001600015158152602001600060ff1681525090565b5b808211156145115760008160009055506001016144f9565b5090565b600061452861452384614d28565b614d03565b90508281526020810184848401111561454057600080fd5b61454b8482856153b8565b509392505050565b600061456661456184614d59565b614d03565b90508281526020810184848401111561457e57600080fd5b6145898482856153b8565b509392505050565b6000813590506145a08161579f565b92915050565b6000813590506145b5816157b6565b92915050565b6000815190506145ca816157b6565b92915050565b6000813590506145df816157cd565b92915050565b600082601f8301126145f657600080fd5b8135614606848260208601614515565b91505092915050565b600082601f83011261462057600080fd5b8135614630848260208601614553565b91505092915050565b600081359050614648816157e4565b92915050565b60006020828403121561466057600080fd5b600061466e84828501614591565b91505092915050565b6000806040838503121561468a57600080fd5b600061469885828601614591565b92505060206146a985828601614591565b9150509250929050565b6000806000606084860312156146c857600080fd5b60006146d686828701614591565b93505060206146e786828701614591565b92505060406146f886828701614639565b9150509250925092565b6000806000806080858703121561471857600080fd5b600061472687828801614591565b945050602061473787828801614591565b935050604061474887828801614639565b925050606085013567ffffffffffffffff81111561476557600080fd5b614771878288016145e5565b91505092959194509250565b6000806040838503121561479057600080fd5b600061479e85828601614591565b92505060206147af858286016145a6565b9150509250929050565b600080604083850312156147cc57600080fd5b60006147da85828601614591565b92505060206147eb85828601614639565b9150509250929050565b60006020828403121561480757600080fd5b6000614815848285016145bb565b91505092915050565b60006020828403121561483057600080fd5b600061483e848285016145d0565b91505092915050565b60008060006060848603121561485c57600080fd5b600084013567ffffffffffffffff81111561487657600080fd5b6148828682870161460f565b935050602084013567ffffffffffffffff81111561489f57600080fd5b6148ab8682870161460f565b925050604084013567ffffffffffffffff8111156148c857600080fd5b6148d4868287016145e5565b9150509250925092565b6000602082840312156148f057600080fd5b60006148fe84828501614639565b91505092915050565b6149108161532d565b82525050565b61491f8161533f565b82525050565b600061493082614d8a565b61493a8185614da0565b935061494a8185602086016153c7565b614953816155e7565b840191505092915050565b600061496982614d95565b6149738185614db1565b93506149838185602086016153c7565b61498c816155e7565b840191505092915050565b60006149a4601383614db1565b91506149af82615605565b602082019050919050565b60006149c7601783614db1565b91506149d28261562e565b602082019050919050565b60006149ea601283614db1565b91506149f582615657565b602082019050919050565b6000614a0d600783614db1565b9150614a1882615680565b602082019050919050565b6000614a30601183614db1565b9150614a3b826156a9565b602082019050919050565b6000614a53601283614db1565b9150614a5e826156d2565b602082019050919050565b6000614a76600d83614db1565b9150614a81826156fb565b602082019050919050565b6000614a99600b83614db1565b9150614aa482615724565b602082019050919050565b6000614abc600f83614db1565b9150614ac78261574d565b602082019050919050565b6000614adf600b83614db1565b9150614aea82615776565b602082019050919050565b614afe816153a1565b82525050565b6000602082019050614b196000830184614907565b92915050565b6000602082019050614b346000830184614916565b92915050565b60006020820190508181036000830152614b54818461495e565b905092915050565b60006060820190508181036000830152614b76818661495e565b90508181036020830152614b8a818561495e565b90508181036040830152614b9e8184614925565b9050949350505050565b60006020820190508181036000830152614bc181614997565b9050919050565b60006020820190508181036000830152614be1816149ba565b9050919050565b60006020820190508181036000830152614c01816149dd565b9050919050565b60006020820190508181036000830152614c2181614a00565b9050919050565b60006020820190508181036000830152614c4181614a23565b9050919050565b60006020820190508181036000830152614c6181614a46565b9050919050565b60006020820190508181036000830152614c8181614a69565b9050919050565b60006020820190508181036000830152614ca181614a8c565b9050919050565b60006020820190508181036000830152614cc181614aaf565b9050919050565b60006020820190508181036000830152614ce181614ad2565b9050919050565b6000602082019050614cfd6000830184614af5565b92915050565b6000614d0d614d1e565b9050614d198282615456565b919050565b6000604051905090565b600067ffffffffffffffff821115614d4357614d426155b8565b5b614d4c826155e7565b9050602081019050919050565b600067ffffffffffffffff821115614d7457614d736155b8565b5b614d7d826155e7565b9050602081019050919050565b600081519050919050565b600081519050919050565b600082825260208201905092915050565b600082825260208201905092915050565b6000614dcd82615377565b9150614dd883615377565b9250817f7fffffffffffffffffffffffffffffffffffffffffffffffffffffffffffffff03831360008312151615614e1357614e1261552b565b5b817f8000000000000000000000000000000000000000000000000000000000000000038312600083121615614e4b57614e4a61552b565b5b828201905092915050565b6000614e61826153a1565b9150614e6c836153a1565b9250827fffffffffffffffffffffffffffffffffffffffffffffffffffffffffffffffff03821115614ea157614ea061552b565b5b828201905092915050565b6000614eb7826153ab565b9150614ec2836153ab565b92508260ff03821115614ed857614ed761552b565b5b828201905092915050565b6000614eee826153a1565b9150614ef9836153a1565b925082614f0957614f0861555a565b5b828204905092915050565b6000808291508390505b6001851115614f5e57808604811115614f3a57614f3961552b565b5b6001851615614f495780820291505b8081029050614f57856155f8565b9450614f1e565b94509492505050565b6000614f72826153a1565b9150614f7d836153a1565b9250614faa7fffffffffffffffffffffffffffffffffffffffffffffffffffffffffffffffff8484614fb2565b905092915050565b600082614fc2576001905061507e565b81614fd0576000905061507e565b8160018114614fe65760028114614ff05761501f565b600191505061507e565b60ff8411156150025761500161552b565b5b8360020a9150848211156150195761501861552b565b5b5061507e565b5060208310610133831016604e8410600b84101617156150545782820a90508381111561504f5761504e61552b565b5b61507e565b6150618484846001614f14565b925090508184048111156150785761507761552b565b5b81810290505b9392505050565b600061509082615377565b915061509b83615377565b9250827f7fffffffffffffffffffffffffffffffffffffffffffffffffffffffffffffff04821160008413600084131616156150da576150d961552b565b5b817f800000000000000000000000000000000000000000000000000000000000000005831260008412600084131616156151175761511661552b565b5b827f800000000000000000000000000000000000000000000000000000000000000005821260008413600084121616156151545761515361552b565b5b827f7fffffffffffffffffffffffffffffffffffffffffffffffffffffffffffffff05821260008412600084121616156151915761519061552b565b5b828202905092915050565b60006151a7826153a1565b91506151b2836153a1565b9250817fffffffffffffffffffffffffffffffffffffffffffffffffffffffffffffffff04831182151516156151eb576151ea61552b565b5b828202905092915050565b6000615201826153ab565b915061520c836153ab565b92508160ff04831182151516156152265761522561552b565b5b828202905092915050565b600061523c82615377565b915061524783615377565b9250827f8000000000000000000000000000000000000000000000000000000000000000018212600084121516156152825761528161552b565b5b827f7fffffffffffffffffffffffffffffffffffffffffffffffffffffffffffffff0182136000841216156152ba576152b961552b565b5b828203905092915050565b60006152d0826153a1565b91506152db836153a1565b9250828210156152ee576152ed61552b565b5b828203905092915050565b6000615304826153ab565b915061530f836153ab565b9250828210156153225761532161552b565b5b828203905092915050565b600061533882615381565b9050919050565b60008115159050919050565b60007fffffffff0000000000000000000000000000000000000000000000000000000082169050919050565b6000819050919050565b600073ffffffffffffffffffffffffffffffffffffffff82169050919050565b6000819050919050565b600060ff82169050919050565b82818337600083830152505050565b60005b838110156153e55780820151818401526020810190506153ca565b838111156153f4576000848401525b50505050565b6000615405826153a1565b915060008214156154195761541861552b565b5b600182039050919050565b6000600282049050600182168061543c57607f821691505b602082108114156154505761544f615589565b5b50919050565b61545f826155e7565b810181811067ffffffffffffffff8211171561547e5761547d6155b8565b5b80604052505050565b6000615492826153a1565b91507fffffffffffffffffffffffffffffffffffffffffffffffffffffffffffffffff8214156154c5576154c461552b565b5b600182019050919050565b60006154db826153ab565b915060ff8214156154ef576154ee61552b565b5b600182019050919050565b6000615505826153a1565b9150615510836153a1565b9250826155205761551f61555a565b5b828206905092915050565b7f4e487b7100000000000000000000000000000000000000000000000000000000600052601160045260246000fd5b7f4e487b7100000000000000000000000000000000000000000000000000000000600052601260045260246000fd5b7f4e487b7100000000000000000000000000000000000000000000000000000000600052602260045260246000fd5b7f4e487b7100000000000000000000000000000000000000000000000000000000600052604160045260246000fd5b6000601f19601f8301169050919050565b60008160011c9050919050565b7f4e6f74206120746f6b656e5552492063616c6c00000000000000000000000000600082015250565b7f546f6b656e2061646472657373206e6f74206d61746368000000000000000000600082015250565b7f546f6b656e204964206e6f74204d617463680000000000000000000000000000600082015250565b7f6578706972656400000000000000000000000000000000000000000000000000600082015250565b7f4a534f4e207061727365206661696c6564000000000000000000000000000000600082015250565b7f4e6f742061206f776e65724f662063616c6c0000000000000000000000000000600082015250565b7f566572696679206661696c656400000000000000000000000000000000000000600082015250565b7f4e6f7420737570706f7274000000000000000000000000000000000000000000600082015250565b7f6e6f7420657468206d61696e6e65740000000000000000000000000000000000600082015250565b7f496e7075742077726f6e67000000000000000000000000000000000000000000600082015250565b6157a88161532d565b81146157b357600080fd5b50565b6157bf8161533f565b81146157ca57600080fd5b50565b6157d68161534b565b81146157e157600080fd5b50565b6157ed816153a1565b81146157f857600080fd5b5056fea26469706673582212205eae5e5269ec1eebed0bd1931606662966232431002049ef2d2e6607bd44642664736f6c63430008040033",
  "devdoc": {
    "kind": "dev",
    "methods": {
      "approve(address,uint256)": {
        "details": "Gives permission to `to` to transfer `tokenId` token to another account. The approval is cleared when the token is transferred. Only a single account can be approved at a time, so approving the zero address clears previous approvals. Requirements: - The caller must own the token or be an approved operator. - `tokenId` must exist. Emits an {Approval} event."
      },
      "getApproved(uint256)": {
        "details": "Returns the account approved for `tokenId` token. Requirements: - `tokenId` must exist."
      },
      "isApprovedForAll(address,address)": {
        "details": "Returns if the `operator` is allowed to manage all of the assets of `owner`. See {setApprovalForAll}"
      },
      "safeTransferFrom(address,address,uint256)": {
        "details": "Safely transfers `tokenId` token from `from` to `to`, checking first that contract recipients are aware of the ERC721 protocol to prevent tokens from being forever locked. Requirements: - `from` cannot be the zero address. - `to` cannot be the zero address. - `tokenId` token must exist and be owned by `from`. - If the caller is not `from`, it must be have been allowed to move this token by either {approve} or {setApprovalForAll}. - If `to` refers to a smart contract, it must implement {IERC721Receiver-onERC721Received}, which is called upon a safe transfer. Emits a {Transfer} event."
      },
      "supportsInterface(bytes4)": {
        "details": "Returns true if this contract implements the interface defined by `interfaceId`. See the corresponding https://eips.ethereum.org/EIPS/eip-165#how-interfaces-are-identified[EIP section] to learn more about how these ids are created. This function call must use less than 30 000 gas."
      },
      "transferFrom(address,address,uint256)": {
        "details": "Transfers `tokenId` token from `from` to `to`. WARNING: Usage of this method is discouraged, use {safeTransferFrom} whenever possible. Requirements: - `from` cannot be the zero address. - `to` cannot be the zero address. - `tokenId` token must be owned by `from`. - If the caller is not `from`, it must be approved to move this token by either {approve} or {setApprovalForAll}. Emits a {Transfer} event."
      }
    },
    "stateVariables": {
      "balanceOf": {
        "details": "Returns the number of tokens in ``owner``'s account."
      },
      "name": {
        "details": "Returns the token collection name."
      },
      "ownerOf": {
        "details": "Returns the owner of the `tokenId` token. Requirements: - `tokenId` must exist."
      },
      "symbol": {
        "details": "Returns the token collection symbol."
      },
      "tokenURI": {
        "details": "Returns the Uniform Resource Identifier (URI) for `tokenId` token."
      }
    },
    "version": 1
  },
  "userdoc": {
    "kind": "user",
    "methods": {},
    "version": 1
  },
  "storageLayout": {
    "storage": [
      {
        "astId": 2567,
        "contract": "contracts/MirrorNFT.sol:MirrorNFT",
        "label": "name",
        "offset": 0,
        "slot": "0",
        "type": "t_string_storage"
      },
      {
        "astId": 2571,
        "contract": "contracts/MirrorNFT.sol:MirrorNFT",
        "label": "symbol",
        "offset": 0,
        "slot": "1",
        "type": "t_string_storage"
      },
      {
        "astId": 2575,
        "contract": "contracts/MirrorNFT.sol:MirrorNFT",
        "label": "originalAddress",
        "offset": 0,
        "slot": "2",
        "type": "t_mapping(t_uint256,t_address)"
      },
      {
        "astId": 2579,
        "contract": "contracts/MirrorNFT.sol:MirrorNFT",
        "label": "originalTokenId",
        "offset": 0,
        "slot": "3",
        "type": "t_mapping(t_uint256,t_uint256)"
      },
      {
        "astId": 2585,
        "contract": "contracts/MirrorNFT.sol:MirrorNFT",
        "label": "lastCheck",
        "offset": 0,
        "slot": "4",
        "type": "t_mapping(t_address,t_mapping(t_uint256,t_uint256))"
      },
      {
        "astId": 2591,
        "contract": "contracts/MirrorNFT.sol:MirrorNFT",
        "label": "mapId",
        "offset": 0,
        "slot": "5",
        "type": "t_mapping(t_address,t_mapping(t_uint256,t_uint256))"
      },
      {
        "astId": 2596,
        "contract": "contracts/MirrorNFT.sol:MirrorNFT",
        "label": "balanceOf",
        "offset": 0,
        "slot": "6",
        "type": "t_mapping(t_address,t_uint256)"
      },
      {
        "astId": 2601,
        "contract": "contracts/MirrorNFT.sol:MirrorNFT",
        "label": "ownerOf",
        "offset": 0,
        "slot": "7",
        "type": "t_mapping(t_uint256,t_address)"
      },
      {
        "astId": 2606,
        "contract": "contracts/MirrorNFT.sol:MirrorNFT",
        "label": "tokenURI",
        "offset": 0,
        "slot": "8",
        "type": "t_mapping(t_uint256,t_string_storage)"
      },
      {
        "astId": 2609,
        "contract": "contracts/MirrorNFT.sol:MirrorNFT",
        "label": "totalSupply",
        "offset": 0,
        "slot": "9",
        "type": "t_uint256"
      },
      {
        "astId": 2612,
        "contract": "contracts/MirrorNFT.sol:MirrorNFT",
        "label": "litVerify",
        "offset": 0,
        "slot": "10",
        "type": "t_contract(LitVerify)2543"
      }
    ],
    "types": {
      "t_address": {
        "encoding": "inplace",
        "label": "address",
        "numberOfBytes": "20"
      },
      "t_contract(LitVerify)2543": {
        "encoding": "inplace",
        "label": "contract LitVerify",
        "numberOfBytes": "20"
      },
      "t_mapping(t_address,t_mapping(t_uint256,t_uint256))": {
        "encoding": "mapping",
        "key": "t_address",
        "label": "mapping(address => mapping(uint256 => uint256))",
        "numberOfBytes": "32",
        "value": "t_mapping(t_uint256,t_uint256)"
      },
      "t_mapping(t_address,t_uint256)": {
        "encoding": "mapping",
        "key": "t_address",
        "label": "mapping(address => uint256)",
        "numberOfBytes": "32",
        "value": "t_uint256"
      },
      "t_mapping(t_uint256,t_address)": {
        "encoding": "mapping",
        "key": "t_uint256",
        "label": "mapping(uint256 => address)",
        "numberOfBytes": "32",
        "value": "t_address"
      },
      "t_mapping(t_uint256,t_string_storage)": {
        "encoding": "mapping",
        "key": "t_uint256",
        "label": "mapping(uint256 => string)",
        "numberOfBytes": "32",
        "value": "t_string_storage"
      },
      "t_mapping(t_uint256,t_uint256)": {
        "encoding": "mapping",
        "key": "t_uint256",
        "label": "mapping(uint256 => uint256)",
        "numberOfBytes": "32",
        "value": "t_uint256"
      },
      "t_string_storage": {
        "encoding": "bytes",
        "label": "string",
        "numberOfBytes": "32"
      },
      "t_uint256": {
        "encoding": "inplace",
        "label": "uint256",
        "numberOfBytes": "32"
      }
    }
  }
}